{
  "_format": "hh-sol-artifact-1",
  "contractName": "Authwork",
  "sourceName": "src/backend/contracts/Authwork.sol",
  "abi": [
    {
      "inputs": [
        {
          "internalType": "uint256",
          "name": "_feePercent",
          "type": "uint256"
        }
      ],
      "stateMutability": "nonpayable",
      "type": "constructor"
    },
    {
      "anonymous": false,
      "inputs": [
        {
          "indexed": true,
          "internalType": "address",
          "name": "fans",
          "type": "address"
        },
        {
          "indexed": true,
          "internalType": "address",
          "name": "follow",
          "type": "address"
        }
      ],
      "name": "Follow",
      "type": "event"
    },
    {
      "anonymous": false,
      "inputs": [
        {
          "indexed": false,
          "internalType": "uint256",
          "name": "itemId",
          "type": "uint256"
        },
        {
          "indexed": true,
          "internalType": "address",
          "name": "nft",
          "type": "address"
        },
        {
          "indexed": false,
          "internalType": "uint256",
          "name": "tokenId",
          "type": "uint256"
        },
        {
          "indexed": true,
          "internalType": "address",
          "name": "owner",
          "type": "address"
        }
      ],
      "name": "Register",
      "type": "event"
    },
    {
      "inputs": [
        {
          "internalType": "address",
          "name": "user",
          "type": "address"
        }
      ],
      "name": "FollowAuth",
      "outputs": [
        {
          "internalType": "bool",
          "name": "",
          "type": "bool"
        }
      ],
      "stateMutability": "nonpayable",
      "type": "function"
    },
    {
      "inputs": [
        {
          "internalType": "uint256",
          "name": "_itemId",
          "type": "uint256"
        }
      ],
      "name": "RegisterItem",
      "outputs": [],
      "stateMutability": "payable",
      "type": "function"
    },
    {
      "inputs": [],
      "name": "feeAccount",
      "outputs": [
        {
          "internalType": "address payable",
          "name": "",
          "type": "address"
        }
      ],
      "stateMutability": "view",
      "type": "function"
    },
    {
      "inputs": [],
      "name": "feePercent",
      "outputs": [
        {
          "internalType": "uint256",
          "name": "",
          "type": "uint256"
        }
      ],
      "stateMutability": "view",
      "type": "function"
    },
    {
      "inputs": [],
      "name": "itemCount",
      "outputs": [
        {
          "internalType": "uint256",
          "name": "",
          "type": "uint256"
        }
      ],
      "stateMutability": "view",
      "type": "function"
    },
    {
      "inputs": [
        {
          "internalType": "uint256",
          "name": "",
          "type": "uint256"
        }
      ],
      "name": "items",
      "outputs": [
        {
          "internalType": "uint256",
          "name": "itemId",
          "type": "uint256"
        },
        {
          "internalType": "contract IERC721",
          "name": "nft",
          "type": "address"
        },
        {
          "internalType": "uint256",
          "name": "tokenId",
          "type": "uint256"
        },
        {
          "internalType": "address payable",
          "name": "owner",
          "type": "address"
        },
        {
          "internalType": "bool",
          "name": "sold",
          "type": "bool"
        }
      ],
      "stateMutability": "view",
      "type": "function"
    },
    {
      "inputs": [
        {
          "internalType": "contract IERC721",
          "name": "_nft",
          "type": "address"
        },
        {
          "internalType": "uint256",
          "name": "_tokenId",
          "type": "uint256"
        }
      ],
      "name": "makeItem",
      "outputs": [],
      "stateMutability": "nonpayable",
      "type": "function"
    }
  ],
  "bytecode": "0x60c060405234801561001057600080fd5b50604051610cd8380380610cd883398181016040528101906100329190610094565b60016000819055503373ffffffffffffffffffffffffffffffffffffffff1660808173ffffffffffffffffffffffffffffffffffffffff1660601b815250508060a08181525050506100de565b60008151905061008e816100c7565b92915050565b6000602082840312156100a657600080fd5b60006100b48482850161007f565b91505092915050565b6000819050919050565b6100d0816100bd565b81146100db57600080fd5b50565b60805160601c60a051610bd26101066000396000610640015260006106160152610bd26000f3fe6080604052600436106100705760003560e01c80636bfb0d011161004e5780636bfb0d01146100e55780637fd6f15c14610110578063bc11301c1461013b578063bfb231d21461017857610070565b80631a1beae2146100755780634f3ba0401461009e57806365e17c9d146100ba575b600080fd5b34801561008157600080fd5b5061009c600480360381019061009791906107b2565b6101b9565b005b6100b860048036038101906100b391906107ee565b6103cc565b005b3480156100c657600080fd5b506100cf610614565b6040516100dc91906108a8565b60405180910390f35b3480156100f157600080fd5b506100fa610638565b6040516101079190610955565b60405180910390f35b34801561011c57600080fd5b5061012561063e565b6040516101329190610955565b60405180910390f35b34801561014757600080fd5b50610162600480360381019061015d9190610789565b610662565b60405161016f91906108fa565b60405180910390f35b34801561018457600080fd5b5061019f600480360381019061019a91906107ee565b6106c7565b6040516101b0959493929190610970565b60405180910390f35b600260005414156101ff576040517f08c379a00000000000000000000000000000000000000000000000000000000081526004016101f690610935565b60405180910390fd5b60026000819055506001600081548092919061021a90610a8d565b91905055508173ffffffffffffffffffffffffffffffffffffffff166323b872dd3330846040518463ffffffff1660e01b815260040161025c939291906108c3565b600060405180830381600087803b15801561027657600080fd5b505af115801561028a573d6000803e3d6000fd5b505050506040518060a0016040528060015481526020018373ffffffffffffffffffffffffffffffffffffffff1681526020018281526020013373ffffffffffffffffffffffffffffffffffffffff168152602001600015158152506002600060015481526020019081526020016000206000820151816000015560208201518160010160006101000a81548173ffffffffffffffffffffffffffffffffffffffff021916908373ffffffffffffffffffffffffffffffffffffffff1602179055506040820151816002015560608201518160030160006101000a81548173ffffffffffffffffffffffffffffffffffffffff021916908373ffffffffffffffffffffffffffffffffffffffff16021790555060808201518160030160146101000a81548160ff02191690831515021790555090505060016000819055505050565b60026000541415610412576040517f08c379a000000000000000000000000000000000000000000000000000000000815260040161040990610935565b60405180910390fd5b6002600081905550600060026000838152602001908152602001600020905060008211801561044357506001548211155b610482576040517f08c379a000000000000000000000000000000000000000000000000000000000815260040161047990610915565b60405180910390fd5b8060010160009054906101000a900473ffffffffffffffffffffffffffffffffffffffff1673ffffffffffffffffffffffffffffffffffffffff166323b872dd303384600201546040518463ffffffff1660e01b81526004016104e7939291906108c3565b600060405180830381600087803b15801561050157600080fd5b505af1158015610515573d6000803e3d6000fd5b50505050338160030160006101000a81548173ffffffffffffffffffffffffffffffffffffffff021916908373ffffffffffffffffffffffffffffffffffffffff16021790555060018160030160146101000a81548160ff0219169083151502179055503373ffffffffffffffffffffffffffffffffffffffff168160010160009054906101000a900473ffffffffffffffffffffffffffffffffffffffff1673ffffffffffffffffffffffffffffffffffffffff167fbac371f670f47d53e6645c453bacbe0d40d95c2b16c2d1488ddfcb83d78dafed8484600201546040516106009291906109c3565b60405180910390a350600160008190555050565b7f000000000000000000000000000000000000000000000000000000000000000081565b60015481565b7f000000000000000000000000000000000000000000000000000000000000000081565b60008173ffffffffffffffffffffffffffffffffffffffff163373ffffffffffffffffffffffffffffffffffffffff167fbccc71dc7842b86291138666aa18e133ee6d41aa71e6d7c650debad1a057663560405160405180910390a360019050919050565b60026020528060005260406000206000915090508060000154908060010160009054906101000a900473ffffffffffffffffffffffffffffffffffffffff16908060020154908060030160009054906101000a900473ffffffffffffffffffffffffffffffffffffffff16908060030160149054906101000a900460ff16905085565b60008135905061075981610b57565b92915050565b60008135905061076e81610b6e565b92915050565b60008135905061078381610b85565b92915050565b60006020828403121561079b57600080fd5b60006107a98482850161074a565b91505092915050565b600080604083850312156107c557600080fd5b60006107d38582860161075f565b92505060206107e485828601610774565b9150509250929050565b60006020828403121561080057600080fd5b600061080e84828501610774565b91505092915050565b61082081610a0f565b82525050565b61082f816109fd565b82525050565b61083e81610a21565b82525050565b61084d81610a69565b82525050565b60006108606012836109ec565b915061086b82610b05565b602082019050919050565b6000610883601f836109ec565b915061088e82610b2e565b602082019050919050565b6108a281610a5f565b82525050565b60006020820190506108bd6000830184610817565b92915050565b60006060820190506108d86000830186610826565b6108e56020830185610826565b6108f26040830184610899565b949350505050565b600060208201905061090f6000830184610835565b92915050565b6000602082019050818103600083015261092e81610853565b9050919050565b6000602082019050818103600083015261094e81610876565b9050919050565b600060208201905061096a6000830184610899565b92915050565b600060a0820190506109856000830188610899565b6109926020830187610844565b61099f6040830186610899565b6109ac6060830185610817565b6109b96080830184610835565b9695505050505050565b60006040820190506109d86000830185610899565b6109e56020830184610899565b9392505050565b600082825260208201905092915050565b6000610a0882610a3f565b9050919050565b6000610a1a82610a3f565b9050919050565b60008115159050919050565b6000610a38826109fd565b9050919050565b600073ffffffffffffffffffffffffffffffffffffffff82169050919050565b6000819050919050565b6000610a7482610a7b565b9050919050565b6000610a8682610a3f565b9050919050565b6000610a9882610a5f565b91507fffffffffffffffffffffffffffffffffffffffffffffffffffffffffffffffff821415610acb57610aca610ad6565b5b600182019050919050565b7f4e487b7100000000000000000000000000000000000000000000000000000000600052601160045260246000fd5b7f6974656d20646f65736e27742065786973740000000000000000000000000000600082015250565b7f5265656e7472616e637947756172643a207265656e7472616e742063616c6c00600082015250565b610b60816109fd565b8114610b6b57600080fd5b50565b610b7781610a2d565b8114610b8257600080fd5b50565b610b8e81610a5f565b8114610b9957600080fd5b5056fea264697066735822122099f49fac9a90a4d2c8297a32e2b0e1cdcbf55df66d270b15aff3c0385e3b03e564736f6c63430008040033",
  "linkReferences": {},
  "deployedLinkReferences": {}
}