{
  "_format": "hh-sol-artifact-1",
  "contractName": "Authwork",
  "sourceName": "src/backend/contracts/Authwork.sol",
  "abi": [
    {
      "inputs": [
        {
          "internalType": "uint256",
          "name": "_feePercent",
          "type": "uint256"
        }
      ],
      "stateMutability": "nonpayable",
      "type": "constructor"
    },
    {
      "anonymous": false,
      "inputs": [
        {
          "indexed": true,
          "internalType": "address",
          "name": "fans",
          "type": "address"
        },
        {
          "indexed": true,
          "internalType": "address",
          "name": "follow",
          "type": "address"
        }
      ],
      "name": "Follow",
      "type": "event"
    },
    {
      "anonymous": false,
      "inputs": [
        {
          "indexed": true,
          "internalType": "address",
          "name": "creator",
          "type": "address"
        },
        {
          "indexed": true,
          "internalType": "address",
          "name": "fans",
          "type": "address"
        }
      ],
      "name": "Member",
      "type": "event"
    },
    {
      "anonymous": false,
      "inputs": [
        {
          "indexed": false,
          "internalType": "uint256",
          "name": "time",
          "type": "uint256"
        },
        {
          "indexed": true,
          "internalType": "address",
          "name": "owner",
          "type": "address"
        },
        {
          "indexed": true,
          "internalType": "address",
          "name": "trigger",
          "type": "address"
        },
        {
          "indexed": false,
          "internalType": "string",
          "name": "state",
          "type": "string"
        }
      ],
      "name": "Record",
      "type": "event"
    },
    {
      "anonymous": false,
      "inputs": [
        {
          "indexed": false,
          "internalType": "uint256",
          "name": "itemId",
          "type": "uint256"
        },
        {
          "indexed": true,
          "internalType": "address",
          "name": "nft",
          "type": "address"
        },
        {
          "indexed": false,
          "internalType": "uint256",
          "name": "tokenId",
          "type": "uint256"
        },
        {
          "indexed": true,
          "internalType": "address",
          "name": "owner",
          "type": "address"
        }
      ],
      "name": "Register",
      "type": "event"
    },
    {
      "inputs": [
        {
          "internalType": "address",
          "name": "user",
          "type": "address"
        }
      ],
      "name": "FollowAuth",
      "outputs": [
        {
          "internalType": "bool",
          "name": "",
          "type": "bool"
        }
      ],
      "stateMutability": "nonpayable",
      "type": "function"
    },
    {
      "inputs": [
        {
          "internalType": "uint256",
          "name": "_itemId",
          "type": "uint256"
        }
      ],
      "name": "RegisterItem",
      "outputs": [],
      "stateMutability": "payable",
      "type": "function"
    },
    {
      "inputs": [
        {
          "internalType": "address",
          "name": "user",
          "type": "address"
        }
      ],
      "name": "Subscribe",
      "outputs": [
        {
          "internalType": "bool",
          "name": "",
          "type": "bool"
        }
      ],
      "stateMutability": "nonpayable",
      "type": "function"
    },
    {
      "inputs": [],
      "name": "feeAccount",
      "outputs": [
        {
          "internalType": "address payable",
          "name": "",
          "type": "address"
        }
      ],
      "stateMutability": "view",
      "type": "function"
    },
    {
      "inputs": [],
      "name": "feePercent",
      "outputs": [
        {
          "internalType": "uint256",
          "name": "",
          "type": "uint256"
        }
      ],
      "stateMutability": "view",
      "type": "function"
    },
    {
      "inputs": [],
      "name": "itemCount",
      "outputs": [
        {
          "internalType": "uint256",
          "name": "",
          "type": "uint256"
        }
      ],
      "stateMutability": "view",
      "type": "function"
    },
    {
      "inputs": [
        {
          "internalType": "uint256",
          "name": "",
          "type": "uint256"
        }
      ],
      "name": "items",
      "outputs": [
        {
          "internalType": "uint256",
          "name": "itemId",
          "type": "uint256"
        },
        {
          "internalType": "contract IERC721",
          "name": "nft",
          "type": "address"
        },
        {
          "internalType": "uint256",
          "name": "tokenId",
          "type": "uint256"
        },
        {
          "internalType": "address payable",
          "name": "owner",
          "type": "address"
        },
        {
          "internalType": "bool",
          "name": "sold",
          "type": "bool"
        }
      ],
      "stateMutability": "view",
      "type": "function"
    },
    {
      "inputs": [
        {
          "internalType": "contract IERC721",
          "name": "_nft",
          "type": "address"
        },
        {
          "internalType": "uint256",
          "name": "_tokenId",
          "type": "uint256"
        }
      ],
      "name": "makeItem",
      "outputs": [],
      "stateMutability": "nonpayable",
      "type": "function"
    }
  ],
  "bytecode": "0x60c060405234801561001057600080fd5b50604051610f80380380610f80833981810160405281019061003291906100b7565b60016000819055503373ffffffffffffffffffffffffffffffffffffffff1660808173ffffffffffffffffffffffffffffffffffffffff16815250508060a08181525050506100e4565b600080fd5b6000819050919050565b61009481610081565b811461009f57600080fd5b50565b6000815190506100b18161008b565b92915050565b6000602082840312156100cd576100cc61007c565b5b60006100db848285016100a2565b91505092915050565b60805160a051610e776101096000396000610750015260006107260152610e776000f3fe60806040526004361061007b5760003560e01c80636bfb0d011161004e5780636bfb0d011461012d5780637fd6f15c14610158578063bc11301c14610183578063bfb231d2146101c05761007b565b80631a1beae2146100805780631aec2cf9146100a95780634f3ba040146100e657806365e17c9d14610102575b600080fd5b34801561008c57600080fd5b506100a760048036038101906100a2919061096a565b610201565b005b3480156100b557600080fd5b506100d060048036038101906100cb91906109d6565b610413565b6040516100dd9190610a1e565b60405180910390f35b61010060048036038101906100fb9190610a39565b6104dd565b005b34801561010e57600080fd5b50610117610724565b6040516101249190610a87565b60405180910390f35b34801561013957600080fd5b50610142610748565b60405161014f9190610ab1565b60405180910390f35b34801561016457600080fd5b5061016d61074e565b60405161017a9190610ab1565b60405180910390f35b34801561018f57600080fd5b506101aa60048036038101906101a591906109d6565b610772565b6040516101b79190610a1e565b60405180910390f35b3480156101cc57600080fd5b506101e760048036038101906101e29190610a39565b61083c565b6040516101f8959493929190610b2b565b60405180910390f35b600260005403610246576040517f08c379a000000000000000000000000000000000000000000000000000000000815260040161023d90610bdb565b60405180910390fd5b60026000819055506001600081548092919061026190610c2a565b91905055508173ffffffffffffffffffffffffffffffffffffffff166323b872dd3330846040518463ffffffff1660e01b81526004016102a393929190610c81565b600060405180830381600087803b1580156102bd57600080fd5b505af11580156102d1573d6000803e3d6000fd5b505050506040518060a0016040528060015481526020018373ffffffffffffffffffffffffffffffffffffffff1681526020018281526020013373ffffffffffffffffffffffffffffffffffffffff168152602001600015158152506002600060015481526020019081526020016000206000820151816000015560208201518160010160006101000a81548173ffffffffffffffffffffffffffffffffffffffff021916908373ffffffffffffffffffffffffffffffffffffffff1602179055506040820151816002015560608201518160030160006101000a81548173ffffffffffffffffffffffffffffffffffffffff021916908373ffffffffffffffffffffffffffffffffffffffff16021790555060808201518160030160146101000a81548160ff02191690831515021790555090505060016000819055505050565b60008173ffffffffffffffffffffffffffffffffffffffff163373ffffffffffffffffffffffffffffffffffffffff167fb8471003fecb07961fc4dc9434191da504063ff3d03cc1b70d41d4ad43e737d460405160405180910390a33373ffffffffffffffffffffffffffffffffffffffff168273ffffffffffffffffffffffffffffffffffffffff167fe4635c9fdc6711c6ab654aa2e721c9d2cf2d3b8f3913ac8dae8bd9fb5ded6fc1426040516104cc9190610d04565b60405180910390a360019050919050565b600260005403610522576040517f08c379a000000000000000000000000000000000000000000000000000000000815260040161051990610bdb565b60405180910390fd5b6002600081905550600060026000838152602001908152602001600020905060008211801561055357506001548211155b610592576040517f08c379a000000000000000000000000000000000000000000000000000000000815260040161058990610d7e565b60405180910390fd5b8060010160009054906101000a900473ffffffffffffffffffffffffffffffffffffffff1673ffffffffffffffffffffffffffffffffffffffff166323b872dd303384600201546040518463ffffffff1660e01b81526004016105f793929190610c81565b600060405180830381600087803b15801561061157600080fd5b505af1158015610625573d6000803e3d6000fd5b50505050338160030160006101000a81548173ffffffffffffffffffffffffffffffffffffffff021916908373ffffffffffffffffffffffffffffffffffffffff16021790555060018160030160146101000a81548160ff0219169083151502179055503373ffffffffffffffffffffffffffffffffffffffff168160010160009054906101000a900473ffffffffffffffffffffffffffffffffffffffff1673ffffffffffffffffffffffffffffffffffffffff167fbac371f670f47d53e6645c453bacbe0d40d95c2b16c2d1488ddfcb83d78dafed848460020154604051610710929190610d9e565b60405180910390a350600160008190555050565b7f000000000000000000000000000000000000000000000000000000000000000081565b60015481565b7f000000000000000000000000000000000000000000000000000000000000000081565b60008173ffffffffffffffffffffffffffffffffffffffff163373ffffffffffffffffffffffffffffffffffffffff167fbccc71dc7842b86291138666aa18e133ee6d41aa71e6d7c650debad1a057663560405160405180910390a33373ffffffffffffffffffffffffffffffffffffffff168273ffffffffffffffffffffffffffffffffffffffff167fe4635c9fdc6711c6ab654aa2e721c9d2cf2d3b8f3913ac8dae8bd9fb5ded6fc14260405161082b9190610e13565b60405180910390a360019050919050565b60026020528060005260406000206000915090508060000154908060010160009054906101000a900473ffffffffffffffffffffffffffffffffffffffff16908060020154908060030160009054906101000a900473ffffffffffffffffffffffffffffffffffffffff16908060030160149054906101000a900460ff16905085565b600080fd5b600073ffffffffffffffffffffffffffffffffffffffff82169050919050565b60006108ef826108c4565b9050919050565b6000610901826108e4565b9050919050565b610911816108f6565b811461091c57600080fd5b50565b60008135905061092e81610908565b92915050565b6000819050919050565b61094781610934565b811461095257600080fd5b50565b6000813590506109648161093e565b92915050565b60008060408385031215610981576109806108bf565b5b600061098f8582860161091f565b92505060206109a085828601610955565b9150509250929050565b6109b3816108e4565b81146109be57600080fd5b50565b6000813590506109d0816109aa565b92915050565b6000602082840312156109ec576109eb6108bf565b5b60006109fa848285016109c1565b91505092915050565b60008115159050919050565b610a1881610a03565b82525050565b6000602082019050610a336000830184610a0f565b92915050565b600060208284031215610a4f57610a4e6108bf565b5b6000610a5d84828501610955565b91505092915050565b6000610a71826108c4565b9050919050565b610a8181610a66565b82525050565b6000602082019050610a9c6000830184610a78565b92915050565b610aab81610934565b82525050565b6000602082019050610ac66000830184610aa2565b92915050565b6000819050919050565b6000610af1610aec610ae7846108c4565b610acc565b6108c4565b9050919050565b6000610b0382610ad6565b9050919050565b6000610b1582610af8565b9050919050565b610b2581610b0a565b82525050565b600060a082019050610b406000830188610aa2565b610b4d6020830187610b1c565b610b5a6040830186610aa2565b610b676060830185610a78565b610b746080830184610a0f565b9695505050505050565b600082825260208201905092915050565b7f5265656e7472616e637947756172643a207265656e7472616e742063616c6c00600082015250565b6000610bc5601f83610b7e565b9150610bd082610b8f565b602082019050919050565b60006020820190508181036000830152610bf481610bb8565b9050919050565b7f4e487b7100000000000000000000000000000000000000000000000000000000600052601160045260246000fd5b6000610c3582610934565b91507fffffffffffffffffffffffffffffffffffffffffffffffffffffffffffffffff8203610c6757610c66610bfb565b5b600182019050919050565b610c7b816108e4565b82525050565b6000606082019050610c966000830186610c72565b610ca36020830185610c72565b610cb06040830184610aa2565b949350505050565b7f7375627363726962000000000000000000000000000000000000000000000000600082015250565b6000610cee600883610b7e565b9150610cf982610cb8565b602082019050919050565b6000604082019050610d196000830184610aa2565b8181036020830152610d2a81610ce1565b905092915050565b7f6974656d20646f65736e27742065786973740000000000000000000000000000600082015250565b6000610d68601283610b7e565b9150610d7382610d32565b602082019050919050565b60006020820190508181036000830152610d9781610d5b565b9050919050565b6000604082019050610db36000830185610aa2565b610dc06020830184610aa2565b9392505050565b7f666f6c6c6f770000000000000000000000000000000000000000000000000000600082015250565b6000610dfd600683610b7e565b9150610e0882610dc7565b602082019050919050565b6000604082019050610e286000830184610aa2565b8181036020830152610e3981610df0565b90509291505056fea26469706673582212202bf0758f68fbe1fa2c790d160ebd8c72731e9478466308f9f619de23b0042efc64736f6c63430008110033",
  "linkReferences": {},
  "deployedLinkReferences": {}
}