{
  "_format": "hh-sol-artifact-1",
  "contractName": "Faucet",
  "sourceName": "src/backend/contracts/Faucet.sol",
  "abi": [
    {
      "inputs": [
        {
          "internalType": "address",
          "name": "tokenAddress",
          "type": "address"
        }
      ],
      "stateMutability": "payable",
      "type": "constructor"
    },
    {
      "anonymous": false,
      "inputs": [
        {
          "indexed": true,
          "internalType": "address",
          "name": "from",
          "type": "address"
        },
        {
          "indexed": true,
          "internalType": "uint256",
          "name": "amount",
          "type": "uint256"
        }
      ],
      "name": "Deposit",
      "type": "event"
    },
    {
      "anonymous": false,
      "inputs": [
        {
          "indexed": true,
          "internalType": "address",
          "name": "to",
          "type": "address"
        },
        {
          "indexed": true,
          "internalType": "uint256",
          "name": "amount",
          "type": "uint256"
        }
      ],
      "name": "Withdrawal",
      "type": "event"
    },
    {
      "inputs": [],
      "name": "getBalance",
      "outputs": [
        {
          "internalType": "uint256",
          "name": "",
          "type": "uint256"
        }
      ],
      "stateMutability": "view",
      "type": "function"
    },
    {
      "inputs": [],
      "name": "lockTime",
      "outputs": [
        {
          "internalType": "uint256",
          "name": "",
          "type": "uint256"
        }
      ],
      "stateMutability": "view",
      "type": "function"
    },
    {
      "inputs": [],
      "name": "requestTokens",
      "outputs": [],
      "stateMutability": "nonpayable",
      "type": "function"
    },
    {
      "inputs": [
        {
          "internalType": "uint256",
          "name": "amount",
          "type": "uint256"
        }
      ],
      "name": "setLockTime",
      "outputs": [],
      "stateMutability": "nonpayable",
      "type": "function"
    },
    {
      "inputs": [
        {
          "internalType": "uint256",
          "name": "amount",
          "type": "uint256"
        }
      ],
      "name": "setWithdrawalAmount",
      "outputs": [],
      "stateMutability": "nonpayable",
      "type": "function"
    },
    {
      "inputs": [],
      "name": "token",
      "outputs": [
        {
          "internalType": "contract IERC20",
          "name": "",
          "type": "address"
        }
      ],
      "stateMutability": "view",
      "type": "function"
    },
    {
      "inputs": [],
      "name": "withdraw",
      "outputs": [],
      "stateMutability": "nonpayable",
      "type": "function"
    },
    {
      "inputs": [],
      "name": "withdrawalAmount",
      "outputs": [
        {
          "internalType": "uint256",
          "name": "",
          "type": "uint256"
        }
      ],
      "stateMutability": "view",
      "type": "function"
    },
    {
      "stateMutability": "payable",
      "type": "receive"
    }
  ],
  "bytecode": "0x6080604052670de0b6b3a7640000600255603c600355604051620010f7380380620010f783398181016040528101906100389190610122565b80600160006101000a81548173ffffffffffffffffffffffffffffffffffffffff021916908373ffffffffffffffffffffffffffffffffffffffff160217905550336000806101000a81548173ffffffffffffffffffffffffffffffffffffffff021916908373ffffffffffffffffffffffffffffffffffffffff1602179055505061014f565b600080fd5b600073ffffffffffffffffffffffffffffffffffffffff82169050919050565b60006100ef826100c4565b9050919050565b6100ff816100e4565b811461010a57600080fd5b50565b60008151905061011c816100f6565b92915050565b600060208284031215610138576101376100bf565b5b60006101468482850161010d565b91505092915050565b610f98806200015f6000396000f3fe60806040526004361061007f5760003560e01c80633ccfd60b1161004e5780633ccfd60b14610165578063ae04d45d1461017c578063e6e268f4146101a5578063fc0c546a146101d0576100ca565b80630d668087146100cf57806312065fe0146100fa578063168ee33a14610125578063359cf2b71461014e576100ca565b366100ca57343373ffffffffffffffffffffffffffffffffffffffff167fe1fffcc4923d04b559f4d29a8bfc6cda04eb5b0d3c460751c2402c5c5cc9109c60405160405180910390a3005b600080fd5b3480156100db57600080fd5b506100e46101fb565b6040516100f191906109e8565b60405180910390f35b34801561010657600080fd5b5061010f610201565b60405161011c91906109e8565b60405180910390f35b34801561013157600080fd5b5061014c60048036038101906101479190610a34565b6102b8565b005b34801561015a57600080fd5b50610163610363565b005b34801561017157600080fd5b5061017a610654565b005b34801561018857600080fd5b506101a3600480360381019061019e9190610a34565b6108ff565b005b3480156101b157600080fd5b506101ba6109a3565b6040516101c791906109e8565b60405180910390f35b3480156101dc57600080fd5b506101e56109a9565b6040516101f29190610ae0565b60405180910390f35b60035481565b6000600160009054906101000a900473ffffffffffffffffffffffffffffffffffffffff1673ffffffffffffffffffffffffffffffffffffffff166370a0823173f39fd6e51aad88f6f4ce6ab8827279cfffb922666040518263ffffffff1660e01b81526004016102729190610b1c565b602060405180830381865afa15801561028f573d6000803e3d6000fd5b505050506040513d601f19601f820116820180604052508101906102b39190610b4c565b905090565b60008054906101000a900473ffffffffffffffffffffffffffffffffffffffff1673ffffffffffffffffffffffffffffffffffffffff163373ffffffffffffffffffffffffffffffffffffffff1614610346576040517f08c379a000000000000000000000000000000000000000000000000000000000815260040161033d90610bfc565b60405180910390fd5b670de0b6b3a76400008161035a9190610c4b565b60028190555050565b600073ffffffffffffffffffffffffffffffffffffffff163373ffffffffffffffffffffffffffffffffffffffff16036103d2576040517f08c379a00000000000000000000000000000000000000000000000000000000081526004016103c990610cff565b60405180910390fd5b600254600160009054906101000a900473ffffffffffffffffffffffffffffffffffffffff1673ffffffffffffffffffffffffffffffffffffffff166370a0823173f39fd6e51aad88f6f4ce6ab8827279cfffb922666040518263ffffffff1660e01b81526004016104449190610b1c565b602060405180830381865afa158015610461573d6000803e3d6000fd5b505050506040513d601f19601f820116820180604052508101906104859190610b4c565b10156104c6576040517f08c379a00000000000000000000000000000000000000000000000000000000081526004016104bd90610d91565b60405180910390fd5b600460003373ffffffffffffffffffffffffffffffffffffffff1673ffffffffffffffffffffffffffffffffffffffff16815260200190815260200160002054421015610548576040517f08c379a000000000000000000000000000000000000000000000000000000000815260040161053f90610e49565b60405180910390fd5b600354426105569190610e69565b600460003373ffffffffffffffffffffffffffffffffffffffff1673ffffffffffffffffffffffffffffffffffffffff16815260200190815260200160002081905550600160009054906101000a900473ffffffffffffffffffffffffffffffffffffffff1673ffffffffffffffffffffffffffffffffffffffff166323b872dd73f39fd6e51aad88f6f4ce6ab8827279cfffb92266336002546040518463ffffffff1660e01b815260040161060e93929190610e9d565b6020604051808303816000875af115801561062d573d6000803e3d6000fd5b505050506040513d601f19601f820116820180604052508101906106519190610f0c565b50565b60008054906101000a900473ffffffffffffffffffffffffffffffffffffffff1673ffffffffffffffffffffffffffffffffffffffff163373ffffffffffffffffffffffffffffffffffffffff16146106e2576040517f08c379a00000000000000000000000000000000000000000000000000000000081526004016106d990610bfc565b60405180910390fd5b600160009054906101000a900473ffffffffffffffffffffffffffffffffffffffff1673ffffffffffffffffffffffffffffffffffffffff166370a08231306040518263ffffffff1660e01b815260040161073d9190610b1c565b602060405180830381865afa15801561075a573d6000803e3d6000fd5b505050506040513d601f19601f8201168201806040525081019061077e9190610b4c565b3373ffffffffffffffffffffffffffffffffffffffff167f7fcf532c15f0a6db0bd6d0e038bea71d30d808c7d98cb3bf7268a95bf5081b6560405160405180910390a3600160009054906101000a900473ffffffffffffffffffffffffffffffffffffffff1673ffffffffffffffffffffffffffffffffffffffff1663a9059cbb33600160009054906101000a900473ffffffffffffffffffffffffffffffffffffffff1673ffffffffffffffffffffffffffffffffffffffff166370a08231306040518263ffffffff1660e01b815260040161085b9190610b1c565b602060405180830381865afa158015610878573d6000803e3d6000fd5b505050506040513d601f19601f8201168201806040525081019061089c9190610b4c565b6040518363ffffffff1660e01b81526004016108b9929190610f39565b6020604051808303816000875af11580156108d8573d6000803e3d6000fd5b505050506040513d601f19601f820116820180604052508101906108fc9190610f0c565b50565b60008054906101000a900473ffffffffffffffffffffffffffffffffffffffff1673ffffffffffffffffffffffffffffffffffffffff163373ffffffffffffffffffffffffffffffffffffffff161461098d576040517f08c379a000000000000000000000000000000000000000000000000000000000815260040161098490610bfc565b60405180910390fd5b603c8161099a9190610c4b565b60038190555050565b60025481565b600160009054906101000a900473ffffffffffffffffffffffffffffffffffffffff1681565b6000819050919050565b6109e2816109cf565b82525050565b60006020820190506109fd60008301846109d9565b92915050565b600080fd5b610a11816109cf565b8114610a1c57600080fd5b50565b600081359050610a2e81610a08565b92915050565b600060208284031215610a4a57610a49610a03565b5b6000610a5884828501610a1f565b91505092915050565b600073ffffffffffffffffffffffffffffffffffffffff82169050919050565b6000819050919050565b6000610aa6610aa1610a9c84610a61565b610a81565b610a61565b9050919050565b6000610ab882610a8b565b9050919050565b6000610aca82610aad565b9050919050565b610ada81610abf565b82525050565b6000602082019050610af56000830184610ad1565b92915050565b6000610b0682610a61565b9050919050565b610b1681610afb565b82525050565b6000602082019050610b316000830184610b0d565b92915050565b600081519050610b4681610a08565b92915050565b600060208284031215610b6257610b61610a03565b5b6000610b7084828501610b37565b91505092915050565b600082825260208201905092915050565b7f4f6e6c792074686520636f6e7472616374206f776e65722063616e2063616c6c60008201527f20746869732066756e6374696f6e000000000000000000000000000000000000602082015250565b6000610be6602e83610b79565b9150610bf182610b8a565b604082019050919050565b60006020820190508181036000830152610c1581610bd9565b9050919050565b7f4e487b7100000000000000000000000000000000000000000000000000000000600052601160045260246000fd5b6000610c56826109cf565b9150610c61836109cf565b9250828202610c6f816109cf565b91508282048414831517610c8657610c85610c1c565b5b5092915050565b7f52657175657374206d757374206e6f74206f726967696e6174652066726f6d2060008201527f61207a65726f206163636f756e74000000000000000000000000000000000000602082015250565b6000610ce9602e83610b79565b9150610cf482610c8d565b604082019050919050565b60006020820190508181036000830152610d1881610cdc565b9050919050565b7f496e73756666696369656e742062616c616e636520696e20666175636574206660008201527f6f72207769746864726177616c20726571756573740000000000000000000000602082015250565b6000610d7b603583610b79565b9150610d8682610d1f565b604082019050919050565b60006020820190508181036000830152610daa81610d6e565b9050919050565b7f496e73756666696369656e742074696d6520656c61707365642073696e63652060008201527f6c617374207769746864726177616c202d2074727920616761696e206c61746560208201527f722e000000000000000000000000000000000000000000000000000000000000604082015250565b6000610e33604283610b79565b9150610e3e82610db1565b606082019050919050565b60006020820190508181036000830152610e6281610e26565b9050919050565b6000610e74826109cf565b9150610e7f836109cf565b9250828201905080821115610e9757610e96610c1c565b5b92915050565b6000606082019050610eb26000830186610b0d565b610ebf6020830185610b0d565b610ecc60408301846109d9565b949350505050565b60008115159050919050565b610ee981610ed4565b8114610ef457600080fd5b50565b600081519050610f0681610ee0565b92915050565b600060208284031215610f2257610f21610a03565b5b6000610f3084828501610ef7565b91505092915050565b6000604082019050610f4e6000830185610b0d565b610f5b60208301846109d9565b939250505056fea26469706673582212209494b3ca26f27b863973fdd042d82f949ca9c1aed4cfaced4920212755da862664736f6c63430008110033",
  "linkReferences": {},
  "deployedLinkReferences": {}
}