{
  "_format": "hh-sol-artifact-1",
  "contractName": "NewToken",
  "sourceName": "src/backend/contracts/NewToken.sol",
  "abi": [
    {
      "inputs": [
        {
          "internalType": "uint256",
          "name": "cap",
          "type": "uint256"
        },
        {
          "internalType": "uint256",
          "name": "reward",
          "type": "uint256"
        }
      ],
      "stateMutability": "nonpayable",
      "type": "constructor"
    },
    {
      "anonymous": false,
      "inputs": [
        {
          "indexed": true,
          "internalType": "address",
          "name": "owner",
          "type": "address"
        },
        {
          "indexed": true,
          "internalType": "address",
          "name": "spender",
          "type": "address"
        },
        {
          "indexed": false,
          "internalType": "uint256",
          "name": "value",
          "type": "uint256"
        }
      ],
      "name": "Approval",
      "type": "event"
    },
    {
      "anonymous": false,
      "inputs": [
        {
          "indexed": true,
          "internalType": "address",
          "name": "from",
          "type": "address"
        },
        {
          "indexed": true,
          "internalType": "address",
          "name": "to",
          "type": "address"
        },
        {
          "indexed": false,
          "internalType": "uint256",
          "name": "value",
          "type": "uint256"
        }
      ],
      "name": "Transfer",
      "type": "event"
    },
    {
      "inputs": [
        {
          "internalType": "address",
          "name": "owner",
          "type": "address"
        },
        {
          "internalType": "address",
          "name": "spender",
          "type": "address"
        }
      ],
      "name": "allowance",
      "outputs": [
        {
          "internalType": "uint256",
          "name": "",
          "type": "uint256"
        }
      ],
      "stateMutability": "view",
      "type": "function"
    },
    {
      "inputs": [
        {
          "internalType": "address",
          "name": "spender",
          "type": "address"
        },
        {
          "internalType": "uint256",
          "name": "amount",
          "type": "uint256"
        }
      ],
      "name": "approve",
      "outputs": [
        {
          "internalType": "bool",
          "name": "",
          "type": "bool"
        }
      ],
      "stateMutability": "nonpayable",
      "type": "function"
    },
    {
      "inputs": [
        {
          "internalType": "address",
          "name": "account",
          "type": "address"
        }
      ],
      "name": "balanceOf",
      "outputs": [
        {
          "internalType": "uint256",
          "name": "",
          "type": "uint256"
        }
      ],
      "stateMutability": "view",
      "type": "function"
    },
    {
      "inputs": [],
      "name": "blockReward",
      "outputs": [
        {
          "internalType": "uint256",
          "name": "",
          "type": "uint256"
        }
      ],
      "stateMutability": "view",
      "type": "function"
    },
    {
      "inputs": [
        {
          "internalType": "uint256",
          "name": "amount",
          "type": "uint256"
        }
      ],
      "name": "burn",
      "outputs": [],
      "stateMutability": "nonpayable",
      "type": "function"
    },
    {
      "inputs": [
        {
          "internalType": "address",
          "name": "account",
          "type": "address"
        },
        {
          "internalType": "uint256",
          "name": "amount",
          "type": "uint256"
        }
      ],
      "name": "burnFrom",
      "outputs": [],
      "stateMutability": "nonpayable",
      "type": "function"
    },
    {
      "inputs": [],
      "name": "cap",
      "outputs": [
        {
          "internalType": "uint256",
          "name": "",
          "type": "uint256"
        }
      ],
      "stateMutability": "view",
      "type": "function"
    },
    {
      "inputs": [],
      "name": "decimals",
      "outputs": [
        {
          "internalType": "uint8",
          "name": "",
          "type": "uint8"
        }
      ],
      "stateMutability": "view",
      "type": "function"
    },
    {
      "inputs": [
        {
          "internalType": "address",
          "name": "spender",
          "type": "address"
        },
        {
          "internalType": "uint256",
          "name": "subtractedValue",
          "type": "uint256"
        }
      ],
      "name": "decreaseAllowance",
      "outputs": [
        {
          "internalType": "bool",
          "name": "",
          "type": "bool"
        }
      ],
      "stateMutability": "nonpayable",
      "type": "function"
    },
    {
      "inputs": [],
      "name": "destroy",
      "outputs": [],
      "stateMutability": "nonpayable",
      "type": "function"
    },
    {
      "inputs": [
        {
          "internalType": "address",
          "name": "spender",
          "type": "address"
        },
        {
          "internalType": "uint256",
          "name": "addedValue",
          "type": "uint256"
        }
      ],
      "name": "increaseAllowance",
      "outputs": [
        {
          "internalType": "bool",
          "name": "",
          "type": "bool"
        }
      ],
      "stateMutability": "nonpayable",
      "type": "function"
    },
    {
      "inputs": [],
      "name": "name",
      "outputs": [
        {
          "internalType": "string",
          "name": "",
          "type": "string"
        }
      ],
      "stateMutability": "view",
      "type": "function"
    },
    {
      "inputs": [],
      "name": "owner",
      "outputs": [
        {
          "internalType": "address payable",
          "name": "",
          "type": "address"
        }
      ],
      "stateMutability": "view",
      "type": "function"
    },
    {
      "inputs": [
        {
          "internalType": "uint256",
          "name": "reward",
          "type": "uint256"
        }
      ],
      "name": "setBlockReward",
      "outputs": [],
      "stateMutability": "nonpayable",
      "type": "function"
    },
    {
      "inputs": [],
      "name": "symbol",
      "outputs": [
        {
          "internalType": "string",
          "name": "",
          "type": "string"
        }
      ],
      "stateMutability": "view",
      "type": "function"
    },
    {
      "inputs": [],
      "name": "totalSupply",
      "outputs": [
        {
          "internalType": "uint256",
          "name": "",
          "type": "uint256"
        }
      ],
      "stateMutability": "view",
      "type": "function"
    },
    {
      "inputs": [
        {
          "internalType": "address",
          "name": "to",
          "type": "address"
        },
        {
          "internalType": "uint256",
          "name": "amount",
          "type": "uint256"
        }
      ],
      "name": "transfer",
      "outputs": [
        {
          "internalType": "bool",
          "name": "",
          "type": "bool"
        }
      ],
      "stateMutability": "nonpayable",
      "type": "function"
    },
    {
      "inputs": [
        {
          "internalType": "address",
          "name": "from",
          "type": "address"
        },
        {
          "internalType": "address",
          "name": "to",
          "type": "address"
        },
        {
          "internalType": "uint256",
          "name": "amount",
          "type": "uint256"
        }
      ],
      "name": "transferFrom",
      "outputs": [
        {
          "internalType": "bool",
          "name": "",
          "type": "bool"
        }
      ],
      "stateMutability": "nonpayable",
      "type": "function"
    }
  ],
  "bytecode": "0x60a06040523480156200001157600080fd5b5060405162002bdb38038062002bdb83398181016040528101906200003791906200053d565b620000476200021f60201b60201c565b600a62000055919062000714565b8262000062919062000765565b6040518060400160405280600881526020017f4e6577546f6b656e0000000000000000000000000000000000000000000000008152506040518060400160405280600281526020017f4e540000000000000000000000000000000000000000000000000000000000008152508160039081620000df919062000a20565b508060049081620000f1919062000a20565b505050600081116200013a576040517f08c379a0000000000000000000000000000000000000000000000000000000008152600401620001319062000b68565b60405180910390fd5b80608081815250505033600560006101000a81548173ffffffffffffffffffffffffffffffffffffffff021916908373ffffffffffffffffffffffffffffffffffffffff160217905550620001e6600560009054906101000a900473ffffffffffffffffffffffffffffffffffffffff16620001bb6200021f60201b60201c565b600a620001c9919062000714565b63042c1d80620001da919062000765565b6200022860201b60201c565b620001f66200021f60201b60201c565b600a62000204919062000714565b8162000211919062000765565b600681905550505062000cd7565b60006012905090565b62000238620002b960201b60201c565b816200024e620002c360201b620004561760201c565b6200025a919062000b8a565b11156200029e576040517f08c379a0000000000000000000000000000000000000000000000000000000008152600401620002959062000c15565b60405180910390fd5b620002b58282620002cd60201b620009b51760201c565b5050565b6000608051905090565b6000600254905090565b620002dd620002b960201b60201c565b81620002f3620002c360201b620004561760201c565b620002ff919062000b8a565b111562000343576040517f08c379a00000000000000000000000000000000000000000000000000000000081526004016200033a9062000c15565b60405180910390fd5b6200035a82826200035e60201b62000a1f1760201c565b5050565b600073ffffffffffffffffffffffffffffffffffffffff168273ffffffffffffffffffffffffffffffffffffffff1603620003d0576040517f08c379a0000000000000000000000000000000000000000000000000000000008152600401620003c79062000c87565b60405180910390fd5b620003e460008383620004d660201b60201c565b8060026000828254620003f8919062000b8a565b92505081905550806000808473ffffffffffffffffffffffffffffffffffffffff1673ffffffffffffffffffffffffffffffffffffffff16815260200190815260200160002060008282546200044f919062000b8a565b925050819055508173ffffffffffffffffffffffffffffffffffffffff16600073ffffffffffffffffffffffffffffffffffffffff167fddf252ad1be2c89b69c2b068fc378daa952ba7f163c4a11628f55a4df523b3ef83604051620004b6919062000cba565b60405180910390a3620004d260008383620004f360201b60201c565b5050565b620004ee838383620004f860201b62000b7e1760201c565b505050565b505050565b505050565b600080fd5b6000819050919050565b620005178162000502565b81146200052357600080fd5b50565b60008151905062000537816200050c565b92915050565b60008060408385031215620005575762000556620004fd565b5b6000620005678582860162000526565b92505060206200057a8582860162000526565b9150509250929050565b7f4e487b7100000000000000000000000000000000000000000000000000000000600052601160045260246000fd5b60008160011c9050919050565b6000808291508390505b60018511156200061257808604811115620005ea57620005e962000584565b5b6001851615620005fa5780820291505b80810290506200060a85620005b3565b9450620005ca565b94509492505050565b6000826200062d576001905062000700565b816200063d576000905062000700565b8160018114620006565760028114620006615762000697565b600191505062000700565b60ff84111562000676576200067562000584565b5b8360020a91508482111562000690576200068f62000584565b5b5062000700565b5060208310610133831016604e8410600b8410161715620006d15782820a905083811115620006cb57620006ca62000584565b5b62000700565b620006e08484846001620005c0565b92509050818404811115620006fa57620006f962000584565b5b81810290505b9392505050565b600060ff82169050919050565b6000620007218262000502565b91506200072e8362000707565b92506200075d7fffffffffffffffffffffffffffffffffffffffffffffffffffffffffffffffff84846200061b565b905092915050565b6000620007728262000502565b91506200077f8362000502565b92508282026200078f8162000502565b91508282048414831517620007a957620007a862000584565b5b5092915050565b600081519050919050565b7f4e487b7100000000000000000000000000000000000000000000000000000000600052604160045260246000fd5b7f4e487b7100000000000000000000000000000000000000000000000000000000600052602260045260246000fd5b600060028204905060018216806200083257607f821691505b602082108103620008485762000847620007ea565b5b50919050565b60008190508160005260206000209050919050565b60006020601f8301049050919050565b600082821b905092915050565b600060088302620008b27fffffffffffffffffffffffffffffffffffffffffffffffffffffffffffffffff8262000873565b620008be868362000873565b95508019841693508086168417925050509392505050565b6000819050919050565b600062000901620008fb620008f58462000502565b620008d6565b62000502565b9050919050565b6000819050919050565b6200091d83620008e0565b620009356200092c8262000908565b84845462000880565b825550505050565b600090565b6200094c6200093d565b6200095981848462000912565b505050565b5b8181101562000981576200097560008262000942565b6001810190506200095f565b5050565b601f821115620009d0576200099a816200084e565b620009a58462000863565b81016020851015620009b5578190505b620009cd620009c48562000863565b8301826200095e565b50505b505050565b600082821c905092915050565b6000620009f560001984600802620009d5565b1980831691505092915050565b600062000a108383620009e2565b9150826002028217905092915050565b62000a2b82620007b0565b67ffffffffffffffff81111562000a475762000a46620007bb565b5b62000a53825462000819565b62000a6082828562000985565b600060209050601f83116001811462000a98576000841562000a83578287015190505b62000a8f858262000a02565b86555062000aff565b601f19841662000aa8866200084e565b60005b8281101562000ad25784890151825560018201915060208501945060208101905062000aab565b8683101562000af2578489015162000aee601f891682620009e2565b8355505b6001600288020188555050505b505050505050565b600082825260208201905092915050565b7f45524332304361707065643a2063617020697320300000000000000000000000600082015250565b600062000b5060158362000b07565b915062000b5d8262000b18565b602082019050919050565b6000602082019050818103600083015262000b838162000b41565b9050919050565b600062000b978262000502565b915062000ba48362000502565b925082820190508082111562000bbf5762000bbe62000584565b5b92915050565b7f45524332304361707065643a2063617020657863656564656400000000000000600082015250565b600062000bfd60198362000b07565b915062000c0a8262000bc5565b602082019050919050565b6000602082019050818103600083015262000c308162000bee565b9050919050565b7f45524332303a206d696e7420746f20746865207a65726f206164647265737300600082015250565b600062000c6f601f8362000b07565b915062000c7c8262000c37565b602082019050919050565b6000602082019050818103600083015262000ca28162000c60565b9050919050565b62000cb48162000502565b82525050565b600060208201905062000cd1600083018462000ca9565b92915050565b608051611ee862000cf360003960006105540152611ee86000f3fe608060405234801561001057600080fd5b50600436106101165760003560e01c806342966c68116100a25780638da5cb5b116100715780638da5cb5b146102cf57806395d89b41146102ed578063a457c2d71461030b578063a9059cbb1461033b578063dd62ed3e1461036b57610116565b806342966c681461025d57806370a082311461027957806379cc6790146102a957806383197ef0146102c557610116565b80631a18e707116100e95780631a18e707146101a557806323b872dd146101c1578063313ce567146101f1578063355274ea1461020f578063395093511461022d57610116565b806306fdde031461011b578063095ea7b3146101395780630ac168a11461016957806318160ddd14610187575b600080fd5b61012361039b565b60405161013091906112da565b60405180910390f35b610153600480360381019061014e9190611395565b61042d565b60405161016091906113f0565b60405180910390f35b610171610450565b60405161017e919061141a565b60405180910390f35b61018f610456565b60405161019c919061141a565b60405180910390f35b6101bf60048036038101906101ba9190611435565b610460565b005b6101db60048036038101906101d69190611462565b610518565b6040516101e891906113f0565b60405180910390f35b6101f9610547565b60405161020691906114d1565b60405180910390f35b610217610550565b604051610224919061141a565b60405180910390f35b61024760048036038101906102429190611395565b610578565b60405161025491906113f0565b60405180910390f35b61027760048036038101906102729190611435565b610622565b005b610293600480360381019061028e91906114ec565b610636565b6040516102a0919061141a565b60405180910390f35b6102c360048036038101906102be9190611395565b61067e565b005b6102cd61069e565b005b6102d7610769565b6040516102e4919061153a565b60405180910390f35b6102f561078f565b60405161030291906112da565b60405180910390f35b61032560048036038101906103209190611395565b610821565b60405161033291906113f0565b60405180910390f35b61035560048036038101906103509190611395565b61090b565b60405161036291906113f0565b60405180910390f35b61038560048036038101906103809190611555565b61092e565b604051610392919061141a565b60405180910390f35b6060600380546103aa906115c4565b80601f01602080910402602001604051908101604052809291908181526020018280546103d6906115c4565b80156104235780601f106103f857610100808354040283529160200191610423565b820191906000526020600020905b81548152906001019060200180831161040657829003601f168201915b5050505050905090565b600080610438610b83565b9050610445818585610b8b565b600191505092915050565b60065481565b6000600254905090565b600560009054906101000a900473ffffffffffffffffffffffffffffffffffffffff1673ffffffffffffffffffffffffffffffffffffffff163373ffffffffffffffffffffffffffffffffffffffff16146104f0576040517f08c379a00000000000000000000000000000000000000000000000000000000081526004016104e790611667565b60405180910390fd5b6104f8610547565b600a61050491906117e9565b8161050f9190611834565b60068190555050565b600080610523610b83565b9050610530858285610d54565b61053b858585610de0565b60019150509392505050565b60006012905090565b60007f0000000000000000000000000000000000000000000000000000000000000000905090565b600080610583610b83565b9050610617818585600160008673ffffffffffffffffffffffffffffffffffffffff1673ffffffffffffffffffffffffffffffffffffffff16815260200190815260200160002060008973ffffffffffffffffffffffffffffffffffffffff1673ffffffffffffffffffffffffffffffffffffffff168152602001908152602001600020546106129190611876565b610b8b565b600191505092915050565b61063361062d610b83565b8261105f565b50565b60008060008373ffffffffffffffffffffffffffffffffffffffff1673ffffffffffffffffffffffffffffffffffffffff168152602001908152602001600020549050919050565b6106908261068a610b83565b83610d54565b61069a828261105f565b5050565b600560009054906101000a900473ffffffffffffffffffffffffffffffffffffffff1673ffffffffffffffffffffffffffffffffffffffff163373ffffffffffffffffffffffffffffffffffffffff161461072e576040517f08c379a000000000000000000000000000000000000000000000000000000000815260040161072590611667565b60405180910390fd5b600560009054906101000a900473ffffffffffffffffffffffffffffffffffffffff1673ffffffffffffffffffffffffffffffffffffffff16ff5b600560009054906101000a900473ffffffffffffffffffffffffffffffffffffffff1681565b60606004805461079e906115c4565b80601f01602080910402602001604051908101604052809291908181526020018280546107ca906115c4565b80156108175780601f106107ec57610100808354040283529160200191610817565b820191906000526020600020905b8154815290600101906020018083116107fa57829003601f168201915b5050505050905090565b60008061082c610b83565b90506000600160008373ffffffffffffffffffffffffffffffffffffffff1673ffffffffffffffffffffffffffffffffffffffff16815260200190815260200160002060008673ffffffffffffffffffffffffffffffffffffffff1673ffffffffffffffffffffffffffffffffffffffff168152602001908152602001600020549050838110156108f2576040517f08c379a00000000000000000000000000000000000000000000000000000000081526004016108e99061191c565b60405180910390fd5b6108ff8286868403610b8b565b60019250505092915050565b600080610916610b83565b9050610923818585610de0565b600191505092915050565b6000600160008473ffffffffffffffffffffffffffffffffffffffff1673ffffffffffffffffffffffffffffffffffffffff16815260200190815260200160002060008373ffffffffffffffffffffffffffffffffffffffff1673ffffffffffffffffffffffffffffffffffffffff16815260200190815260200160002054905092915050565b6109bd610550565b816109c6610456565b6109d09190611876565b1115610a11576040517f08c379a0000000000000000000000000000000000000000000000000000000008152600401610a0890611988565b60405180910390fd5b610a1b8282610a1f565b5050565b600073ffffffffffffffffffffffffffffffffffffffff168273ffffffffffffffffffffffffffffffffffffffff1603610a8e576040517f08c379a0000000000000000000000000000000000000000000000000000000008152600401610a85906119f4565b60405180910390fd5b610a9a60008383611235565b8060026000828254610aac9190611876565b92505081905550806000808473ffffffffffffffffffffffffffffffffffffffff1673ffffffffffffffffffffffffffffffffffffffff1681526020019081526020016000206000828254610b019190611876565b925050819055508173ffffffffffffffffffffffffffffffffffffffff16600073ffffffffffffffffffffffffffffffffffffffff167fddf252ad1be2c89b69c2b068fc378daa952ba7f163c4a11628f55a4df523b3ef83604051610b66919061141a565b60405180910390a3610b7a60008383611245565b5050565b505050565b600033905090565b600073ffffffffffffffffffffffffffffffffffffffff168373ffffffffffffffffffffffffffffffffffffffff1603610bfa576040517f08c379a0000000000000000000000000000000000000000000000000000000008152600401610bf190611a86565b60405180910390fd5b600073ffffffffffffffffffffffffffffffffffffffff168273ffffffffffffffffffffffffffffffffffffffff1603610c69576040517f08c379a0000000000000000000000000000000000000000000000000000000008152600401610c6090611b18565b60405180910390fd5b80600160008573ffffffffffffffffffffffffffffffffffffffff1673ffffffffffffffffffffffffffffffffffffffff16815260200190815260200160002060008473ffffffffffffffffffffffffffffffffffffffff1673ffffffffffffffffffffffffffffffffffffffff168152602001908152602001600020819055508173ffffffffffffffffffffffffffffffffffffffff168373ffffffffffffffffffffffffffffffffffffffff167f8c5be1e5ebec7d5bd14f71427d1e84f3dd0314c0f7b2291e5b200ac8c7c3b92583604051610d47919061141a565b60405180910390a3505050565b6000610d60848461092e565b90507fffffffffffffffffffffffffffffffffffffffffffffffffffffffffffffffff8114610dda5781811015610dcc576040517f08c379a0000000000000000000000000000000000000000000000000000000008152600401610dc390611b84565b60405180910390fd5b610dd98484848403610b8b565b5b50505050565b600073ffffffffffffffffffffffffffffffffffffffff168373ffffffffffffffffffffffffffffffffffffffff1603610e4f576040517f08c379a0000000000000000000000000000000000000000000000000000000008152600401610e4690611c16565b60405180910390fd5b600073ffffffffffffffffffffffffffffffffffffffff168273ffffffffffffffffffffffffffffffffffffffff1603610ebe576040517f08c379a0000000000000000000000000000000000000000000000000000000008152600401610eb590611ca8565b60405180910390fd5b610ec9838383611235565b60008060008573ffffffffffffffffffffffffffffffffffffffff1673ffffffffffffffffffffffffffffffffffffffff16815260200190815260200160002054905081811015610f4f576040517f08c379a0000000000000000000000000000000000000000000000000000000008152600401610f4690611d3a565b60405180910390fd5b8181036000808673ffffffffffffffffffffffffffffffffffffffff1673ffffffffffffffffffffffffffffffffffffffff16815260200190815260200160002081905550816000808573ffffffffffffffffffffffffffffffffffffffff1673ffffffffffffffffffffffffffffffffffffffff1681526020019081526020016000206000828254610fe29190611876565b925050819055508273ffffffffffffffffffffffffffffffffffffffff168473ffffffffffffffffffffffffffffffffffffffff167fddf252ad1be2c89b69c2b068fc378daa952ba7f163c4a11628f55a4df523b3ef84604051611046919061141a565b60405180910390a3611059848484611245565b50505050565b600073ffffffffffffffffffffffffffffffffffffffff168273ffffffffffffffffffffffffffffffffffffffff16036110ce576040517f08c379a00000000000000000000000000000000000000000000000000000000081526004016110c590611dcc565b60405180910390fd5b6110da82600083611235565b60008060008473ffffffffffffffffffffffffffffffffffffffff1673ffffffffffffffffffffffffffffffffffffffff16815260200190815260200160002054905081811015611160576040517f08c379a000000000000000000000000000000000000000000000000000000000815260040161115790611e5e565b60405180910390fd5b8181036000808573ffffffffffffffffffffffffffffffffffffffff1673ffffffffffffffffffffffffffffffffffffffff1681526020019081526020016000208190555081600260008282546111b79190611e7e565b92505081905550600073ffffffffffffffffffffffffffffffffffffffff168373ffffffffffffffffffffffffffffffffffffffff167fddf252ad1be2c89b69c2b068fc378daa952ba7f163c4a11628f55a4df523b3ef8460405161121c919061141a565b60405180910390a361123083600084611245565b505050565b611240838383610b7e565b505050565b505050565b600081519050919050565b600082825260208201905092915050565b60005b83811015611284578082015181840152602081019050611269565b60008484015250505050565b6000601f19601f8301169050919050565b60006112ac8261124a565b6112b68185611255565b93506112c6818560208601611266565b6112cf81611290565b840191505092915050565b600060208201905081810360008301526112f481846112a1565b905092915050565b600080fd5b600073ffffffffffffffffffffffffffffffffffffffff82169050919050565b600061132c82611301565b9050919050565b61133c81611321565b811461134757600080fd5b50565b60008135905061135981611333565b92915050565b6000819050919050565b6113728161135f565b811461137d57600080fd5b50565b60008135905061138f81611369565b92915050565b600080604083850312156113ac576113ab6112fc565b5b60006113ba8582860161134a565b92505060206113cb85828601611380565b9150509250929050565b60008115159050919050565b6113ea816113d5565b82525050565b600060208201905061140560008301846113e1565b92915050565b6114148161135f565b82525050565b600060208201905061142f600083018461140b565b92915050565b60006020828403121561144b5761144a6112fc565b5b600061145984828501611380565b91505092915050565b60008060006060848603121561147b5761147a6112fc565b5b60006114898682870161134a565b935050602061149a8682870161134a565b92505060406114ab86828701611380565b9150509250925092565b600060ff82169050919050565b6114cb816114b5565b82525050565b60006020820190506114e660008301846114c2565b92915050565b600060208284031215611502576115016112fc565b5b60006115108482850161134a565b91505092915050565b600061152482611301565b9050919050565b61153481611519565b82525050565b600060208201905061154f600083018461152b565b92915050565b6000806040838503121561156c5761156b6112fc565b5b600061157a8582860161134a565b925050602061158b8582860161134a565b9150509250929050565b7f4e487b7100000000000000000000000000000000000000000000000000000000600052602260045260246000fd5b600060028204905060018216806115dc57607f821691505b6020821081036115ef576115ee611595565b5b50919050565b7f4f6e6c7920746865206f776e65722063616e2063616c6c20746869732066756e60008201527f6374696f6e000000000000000000000000000000000000000000000000000000602082015250565b6000611651602583611255565b915061165c826115f5565b604082019050919050565b6000602082019050818103600083015261168081611644565b9050919050565b7f4e487b7100000000000000000000000000000000000000000000000000000000600052601160045260246000fd5b60008160011c9050919050565b6000808291508390505b600185111561170d578086048111156116e9576116e8611687565b5b60018516156116f85780820291505b8081029050611706856116b6565b94506116cd565b94509492505050565b60008261172657600190506117e2565b8161173457600090506117e2565b816001811461174a576002811461175457611783565b60019150506117e2565b60ff84111561176657611765611687565b5b8360020a91508482111561177d5761177c611687565b5b506117e2565b5060208310610133831016604e8410600b84101617156117b85782820a9050838111156117b3576117b2611687565b5b6117e2565b6117c584848460016116c3565b925090508184048111156117dc576117db611687565b5b81810290505b9392505050565b60006117f48261135f565b91506117ff836114b5565b925061182c7fffffffffffffffffffffffffffffffffffffffffffffffffffffffffffffffff8484611716565b905092915050565b600061183f8261135f565b915061184a8361135f565b92508282026118588161135f565b9150828204841483151761186f5761186e611687565b5b5092915050565b60006118818261135f565b915061188c8361135f565b92508282019050808211156118a4576118a3611687565b5b92915050565b7f45524332303a2064656372656173656420616c6c6f77616e63652062656c6f7760008201527f207a65726f000000000000000000000000000000000000000000000000000000602082015250565b6000611906602583611255565b9150611911826118aa565b604082019050919050565b60006020820190508181036000830152611935816118f9565b9050919050565b7f45524332304361707065643a2063617020657863656564656400000000000000600082015250565b6000611972601983611255565b915061197d8261193c565b602082019050919050565b600060208201905081810360008301526119a181611965565b9050919050565b7f45524332303a206d696e7420746f20746865207a65726f206164647265737300600082015250565b60006119de601f83611255565b91506119e9826119a8565b602082019050919050565b60006020820190508181036000830152611a0d816119d1565b9050919050565b7f45524332303a20617070726f76652066726f6d20746865207a65726f2061646460008201527f7265737300000000000000000000000000000000000000000000000000000000602082015250565b6000611a70602483611255565b9150611a7b82611a14565b604082019050919050565b60006020820190508181036000830152611a9f81611a63565b9050919050565b7f45524332303a20617070726f766520746f20746865207a65726f20616464726560008201527f7373000000000000000000000000000000000000000000000000000000000000602082015250565b6000611b02602283611255565b9150611b0d82611aa6565b604082019050919050565b60006020820190508181036000830152611b3181611af5565b9050919050565b7f45524332303a20696e73756666696369656e7420616c6c6f77616e6365000000600082015250565b6000611b6e601d83611255565b9150611b7982611b38565b602082019050919050565b60006020820190508181036000830152611b9d81611b61565b9050919050565b7f45524332303a207472616e736665722066726f6d20746865207a65726f20616460008201527f6472657373000000000000000000000000000000000000000000000000000000602082015250565b6000611c00602583611255565b9150611c0b82611ba4565b604082019050919050565b60006020820190508181036000830152611c2f81611bf3565b9050919050565b7f45524332303a207472616e7366657220746f20746865207a65726f206164647260008201527f6573730000000000000000000000000000000000000000000000000000000000602082015250565b6000611c92602383611255565b9150611c9d82611c36565b604082019050919050565b60006020820190508181036000830152611cc181611c85565b9050919050565b7f45524332303a207472616e7366657220616d6f756e742065786365656473206260008201527f616c616e63650000000000000000000000000000000000000000000000000000602082015250565b6000611d24602683611255565b9150611d2f82611cc8565b604082019050919050565b60006020820190508181036000830152611d5381611d17565b9050919050565b7f45524332303a206275726e2066726f6d20746865207a65726f2061646472657360008201527f7300000000000000000000000000000000000000000000000000000000000000602082015250565b6000611db6602183611255565b9150611dc182611d5a565b604082019050919050565b60006020820190508181036000830152611de581611da9565b9050919050565b7f45524332303a206275726e20616d6f756e7420657863656564732062616c616e60008201527f6365000000000000000000000000000000000000000000000000000000000000602082015250565b6000611e48602283611255565b9150611e5382611dec565b604082019050919050565b60006020820190508181036000830152611e7781611e3b565b9050919050565b6000611e898261135f565b9150611e948361135f565b9250828203905081811115611eac57611eab611687565b5b9291505056fea2646970667358221220e322d2bedbec9180f7808c29ca7b306f2521474d855a1315f2dd0af7bdf6b16a64736f6c63430008110033",
  "linkReferences": {},
  "deployedLinkReferences": {}
}