{
  "_format": "hh-sol-artifact-1",
  "contractName": "NFT",
  "sourceName": "src/backend/contracts/NFT.sol",
  "abi": [
    {
      "inputs": [],
      "stateMutability": "nonpayable",
      "type": "constructor"
    },
    {
      "anonymous": false,
      "inputs": [
        {
          "indexed": true,
          "internalType": "address",
          "name": "owner",
          "type": "address"
        },
        {
          "indexed": true,
          "internalType": "address",
          "name": "approved",
          "type": "address"
        },
        {
          "indexed": true,
          "internalType": "uint256",
          "name": "tokenId",
          "type": "uint256"
        }
      ],
      "name": "Approval",
      "type": "event"
    },
    {
      "anonymous": false,
      "inputs": [
        {
          "indexed": true,
          "internalType": "address",
          "name": "owner",
          "type": "address"
        },
        {
          "indexed": true,
          "internalType": "address",
          "name": "operator",
          "type": "address"
        },
        {
          "indexed": false,
          "internalType": "bool",
          "name": "approved",
          "type": "bool"
        }
      ],
      "name": "ApprovalForAll",
      "type": "event"
    },
    {
      "anonymous": false,
      "inputs": [
        {
          "indexed": true,
          "internalType": "address",
          "name": "from",
          "type": "address"
        },
        {
          "indexed": true,
          "internalType": "address",
          "name": "to",
          "type": "address"
        },
        {
          "indexed": true,
          "internalType": "uint256",
          "name": "tokenId",
          "type": "uint256"
        }
      ],
      "name": "Transfer",
      "type": "event"
    },
    {
      "inputs": [
        {
          "internalType": "address",
          "name": "to",
          "type": "address"
        },
        {
          "internalType": "uint256",
          "name": "tokenId",
          "type": "uint256"
        }
      ],
      "name": "approve",
      "outputs": [],
      "stateMutability": "nonpayable",
      "type": "function"
    },
    {
      "inputs": [
        {
          "internalType": "address",
          "name": "owner",
          "type": "address"
        }
      ],
      "name": "balanceOf",
      "outputs": [
        {
          "internalType": "uint256",
          "name": "",
          "type": "uint256"
        }
      ],
      "stateMutability": "view",
      "type": "function"
    },
    {
      "inputs": [
        {
          "internalType": "uint256",
          "name": "tokenId",
          "type": "uint256"
        }
      ],
      "name": "getApproved",
      "outputs": [
        {
          "internalType": "address",
          "name": "",
          "type": "address"
        }
      ],
      "stateMutability": "view",
      "type": "function"
    },
    {
      "inputs": [
        {
          "internalType": "address",
          "name": "owner",
          "type": "address"
        },
        {
          "internalType": "address",
          "name": "operator",
          "type": "address"
        }
      ],
      "name": "isApprovedForAll",
      "outputs": [
        {
          "internalType": "bool",
          "name": "",
          "type": "bool"
        }
      ],
      "stateMutability": "view",
      "type": "function"
    },
    {
      "inputs": [
        {
          "internalType": "string",
          "name": "_tokenURI",
          "type": "string"
        }
      ],
      "name": "mint",
      "outputs": [
        {
          "internalType": "uint256",
          "name": "",
          "type": "uint256"
        }
      ],
      "stateMutability": "nonpayable",
      "type": "function"
    },
    {
      "inputs": [],
      "name": "name",
      "outputs": [
        {
          "internalType": "string",
          "name": "",
          "type": "string"
        }
      ],
      "stateMutability": "view",
      "type": "function"
    },
    {
      "inputs": [
        {
          "internalType": "uint256",
          "name": "tokenId",
          "type": "uint256"
        }
      ],
      "name": "ownerOf",
      "outputs": [
        {
          "internalType": "address",
          "name": "",
          "type": "address"
        }
      ],
      "stateMutability": "view",
      "type": "function"
    },
    {
      "inputs": [
        {
          "internalType": "address",
          "name": "from",
          "type": "address"
        },
        {
          "internalType": "address",
          "name": "to",
          "type": "address"
        },
        {
          "internalType": "uint256",
          "name": "tokenId",
          "type": "uint256"
        }
      ],
      "name": "safeTransferFrom",
      "outputs": [],
      "stateMutability": "nonpayable",
      "type": "function"
    },
    {
      "inputs": [
        {
          "internalType": "address",
          "name": "from",
          "type": "address"
        },
        {
          "internalType": "address",
          "name": "to",
          "type": "address"
        },
        {
          "internalType": "uint256",
          "name": "tokenId",
          "type": "uint256"
        },
        {
          "internalType": "bytes",
          "name": "_data",
          "type": "bytes"
        }
      ],
      "name": "safeTransferFrom",
      "outputs": [],
      "stateMutability": "nonpayable",
      "type": "function"
    },
    {
      "inputs": [
        {
          "internalType": "address",
          "name": "operator",
          "type": "address"
        },
        {
          "internalType": "bool",
          "name": "approved",
          "type": "bool"
        }
      ],
      "name": "setApprovalForAll",
      "outputs": [],
      "stateMutability": "nonpayable",
      "type": "function"
    },
    {
      "inputs": [
        {
          "internalType": "string",
          "name": "_tokenURI",
          "type": "string"
        },
        {
          "internalType": "uint256",
          "name": "tokenId",
          "type": "uint256"
        }
      ],
      "name": "setTokenURL",
      "outputs": [
        {
          "internalType": "bool",
          "name": "",
          "type": "bool"
        }
      ],
      "stateMutability": "nonpayable",
      "type": "function"
    },
    {
      "inputs": [
        {
          "internalType": "bytes4",
          "name": "interfaceId",
          "type": "bytes4"
        }
      ],
      "name": "supportsInterface",
      "outputs": [
        {
          "internalType": "bool",
          "name": "",
          "type": "bool"
        }
      ],
      "stateMutability": "view",
      "type": "function"
    },
    {
      "inputs": [],
      "name": "symbol",
      "outputs": [
        {
          "internalType": "string",
          "name": "",
          "type": "string"
        }
      ],
      "stateMutability": "view",
      "type": "function"
    },
    {
      "inputs": [],
      "name": "tokenCount",
      "outputs": [
        {
          "internalType": "uint256",
          "name": "",
          "type": "uint256"
        }
      ],
      "stateMutability": "view",
      "type": "function"
    },
    {
      "inputs": [
        {
          "internalType": "uint256",
          "name": "tokenId",
          "type": "uint256"
        }
      ],
      "name": "tokenURI",
      "outputs": [
        {
          "internalType": "string",
          "name": "",
          "type": "string"
        }
      ],
      "stateMutability": "view",
      "type": "function"
    },
    {
      "inputs": [
        {
          "internalType": "address",
          "name": "from",
          "type": "address"
        },
        {
          "internalType": "address",
          "name": "to",
          "type": "address"
        },
        {
          "internalType": "uint256",
          "name": "tokenId",
          "type": "uint256"
        }
      ],
      "name": "transferFrom",
      "outputs": [],
      "stateMutability": "nonpayable",
      "type": "function"
    }
  ],
  "bytecode": "0x60806040523480156200001157600080fd5b506040518060400160405280600881526020017f44417070204e46540000000000000000000000000000000000000000000000008152506040518060400160405280600481526020017f4441505000000000000000000000000000000000000000000000000000000000815250816000908051906020019062000096929190620000b8565b508060019080519060200190620000af929190620000b8565b505050620001cd565b828054620000c69062000168565b90600052602060002090601f016020900481019282620000ea576000855562000136565b82601f106200010557805160ff191683800117855562000136565b8280016001018555821562000136579182015b828111156200013557825182559160200191906001019062000118565b5b50905062000145919062000149565b5090565b5b80821115620001645760008160009055506001016200014a565b5090565b600060028204905060018216806200018157607f821691505b602082108114156200019857620001976200019e565b5b50919050565b7f4e487b7100000000000000000000000000000000000000000000000000000000600052602260045260246000fd5b612cb480620001dd6000396000f3fe608060405234801561001057600080fd5b50600436106101005760003560e01c806392639ea111610097578063b88d4fde11610066578063b88d4fde146102bf578063c87b56dd146102db578063d85d3d271461030b578063e985e9c51461033b57610100565b806392639ea11461023757806395d89b41146102675780639f181b5e14610285578063a22cb465146102a357610100565b806323b872dd116100d357806323b872dd1461019f57806342842e0e146101bb5780636352211e146101d757806370a082311461020757610100565b806301ffc9a71461010557806306fdde0314610135578063081812fc14610153578063095ea7b314610183575b600080fd5b61011f600480360381019061011a9190611ccc565b61036b565b60405161012c9190612167565b60405180910390f35b61013d61044d565b60405161014a9190612182565b60405180910390f35b61016d60048036038101906101689190611db3565b6104df565b60405161017a9190612100565b60405180910390f35b61019d60048036038101906101989190611c90565b610564565b005b6101b960048036038101906101b49190611b8a565b61067c565b005b6101d560048036038101906101d09190611b8a565b6106dc565b005b6101f160048036038101906101ec9190611db3565b6106fc565b6040516101fe9190612100565b60405180910390f35b610221600480360381019061021c9190611b25565b6107ae565b60405161022e91906123a4565b60405180910390f35b610251600480360381019061024c9190611d5f565b610866565b60405161025e9190612167565b60405180910390f35b61026f61087c565b60405161027c9190612182565b60405180910390f35b61028d61090e565b60405161029a91906123a4565b60405180910390f35b6102bd60048036038101906102b89190611c54565b610914565b005b6102d960048036038101906102d49190611bd9565b61092a565b005b6102f560048036038101906102f09190611db3565b61098c565b6040516103029190612182565b60405180910390f35b61032560048036038101906103209190611d1e565b610ade565b60405161033291906123a4565b60405180910390f35b61035560048036038101906103509190611b4e565b610b1a565b6040516103629190612167565b60405180910390f35b60007f80ac58cd000000000000000000000000000000000000000000000000000000007bffffffffffffffffffffffffffffffffffffffffffffffffffffffff1916827bffffffffffffffffffffffffffffffffffffffffffffffffffffffff1916148061043657507f5b5e139f000000000000000000000000000000000000000000000000000000007bffffffffffffffffffffffffffffffffffffffffffffffffffffffff1916827bffffffffffffffffffffffffffffffffffffffffffffffffffffffff1916145b80610446575061044582610bae565b5b9050919050565b60606000805461045c906125fa565b80601f0160208091040260200160405190810160405280929190818152602001828054610488906125fa565b80156104d55780601f106104aa576101008083540402835291602001916104d5565b820191906000526020600020905b8154815290600101906020018083116104b857829003601f168201915b5050505050905090565b60006104ea82610c18565b610529576040517f08c379a000000000000000000000000000000000000000000000000000000000815260040161052090612324565b60405180910390fd5b6004600083815260200190815260200160002060009054906101000a900473ffffffffffffffffffffffffffffffffffffffff169050919050565b600061056f826106fc565b90508073ffffffffffffffffffffffffffffffffffffffff168373ffffffffffffffffffffffffffffffffffffffff1614156105e0576040517f08c379a00000000000000000000000000000000000000000000000000000000081526004016105d790612364565b60405180910390fd5b8073ffffffffffffffffffffffffffffffffffffffff166105ff610c84565b73ffffffffffffffffffffffffffffffffffffffff16148061062e575061062d81610628610c84565b610b1a565b5b61066d576040517f08c379a000000000000000000000000000000000000000000000000000000000815260040161066490612264565b60405180910390fd5b6106778383610c8c565b505050565b61068d610687610c84565b82610d45565b6106cc576040517f08c379a00000000000000000000000000000000000000000000000000000000081526004016106c390612384565b60405180910390fd5b6106d7838383610e23565b505050565b6106f78383836040518060200160405280600081525061092a565b505050565b6000806002600084815260200190815260200160002060009054906101000a900473ffffffffffffffffffffffffffffffffffffffff169050600073ffffffffffffffffffffffffffffffffffffffff168173ffffffffffffffffffffffffffffffffffffffff1614156107a5576040517f08c379a000000000000000000000000000000000000000000000000000000000815260040161079c906122a4565b60405180910390fd5b80915050919050565b60008073ffffffffffffffffffffffffffffffffffffffff168273ffffffffffffffffffffffffffffffffffffffff16141561081f576040517f08c379a000000000000000000000000000000000000000000000000000000000815260040161081690612284565b60405180910390fd5b600360008373ffffffffffffffffffffffffffffffffffffffff1673ffffffffffffffffffffffffffffffffffffffff168152602001908152602001600020549050919050565b6000610872828461108a565b6001905092915050565b60606001805461088b906125fa565b80601f01602080910402602001604051908101604052809291908181526020018280546108b7906125fa565b80156109045780601f106108d957610100808354040283529160200191610904565b820191906000526020600020905b8154815290600101906020018083116108e757829003601f168201915b5050505050905090565b60075481565b61092661091f610c84565b83836110fe565b5050565b61093b610935610c84565b83610d45565b61097a576040517f08c379a000000000000000000000000000000000000000000000000000000000815260040161097190612384565b60405180910390fd5b6109868484848461126b565b50505050565b606061099782610c18565b6109d6576040517f08c379a00000000000000000000000000000000000000000000000000000000081526004016109cd90612304565b60405180910390fd5b60006006600084815260200190815260200160002080546109f6906125fa565b80601f0160208091040260200160405190810160405280929190818152602001828054610a22906125fa565b8015610a6f5780601f10610a4457610100808354040283529160200191610a6f565b820191906000526020600020905b815481529060010190602001808311610a5257829003601f168201915b505050505090506000610a806112c7565b9050600081511415610a96578192505050610ad9565b600082511115610acb578082604051602001610ab39291906120dc565b60405160208183030381529060405292505050610ad9565b610ad4846112de565b925050505b919050565b600060076000815480929190610af39061265d565b9190505550610b0433600754611385565b610b106007548361108a565b6007549050919050565b6000600560008473ffffffffffffffffffffffffffffffffffffffff1673ffffffffffffffffffffffffffffffffffffffff16815260200190815260200160002060008373ffffffffffffffffffffffffffffffffffffffff1673ffffffffffffffffffffffffffffffffffffffff16815260200190815260200160002060009054906101000a900460ff16905092915050565b60007f01ffc9a7000000000000000000000000000000000000000000000000000000007bffffffffffffffffffffffffffffffffffffffffffffffffffffffff1916827bffffffffffffffffffffffffffffffffffffffffffffffffffffffff1916149050919050565b60008073ffffffffffffffffffffffffffffffffffffffff166002600084815260200190815260200160002060009054906101000a900473ffffffffffffffffffffffffffffffffffffffff1673ffffffffffffffffffffffffffffffffffffffff1614159050919050565b600033905090565b816004600083815260200190815260200160002060006101000a81548173ffffffffffffffffffffffffffffffffffffffff021916908373ffffffffffffffffffffffffffffffffffffffff160217905550808273ffffffffffffffffffffffffffffffffffffffff16610cff836106fc565b73ffffffffffffffffffffffffffffffffffffffff167f8c5be1e5ebec7d5bd14f71427d1e84f3dd0314c0f7b2291e5b200ac8c7c3b92560405160405180910390a45050565b6000610d5082610c18565b610d8f576040517f08c379a0000000000000000000000000000000000000000000000000000000008152600401610d8690612244565b60405180910390fd5b6000610d9a836106fc565b90508073ffffffffffffffffffffffffffffffffffffffff168473ffffffffffffffffffffffffffffffffffffffff161480610e0957508373ffffffffffffffffffffffffffffffffffffffff16610df1846104df565b73ffffffffffffffffffffffffffffffffffffffff16145b80610e1a5750610e198185610b1a565b5b91505092915050565b8273ffffffffffffffffffffffffffffffffffffffff16610e43826106fc565b73ffffffffffffffffffffffffffffffffffffffff1614610e99576040517f08c379a0000000000000000000000000000000000000000000000000000000008152600401610e90906121c4565b60405180910390fd5b600073ffffffffffffffffffffffffffffffffffffffff168273ffffffffffffffffffffffffffffffffffffffff161415610f09576040517f08c379a0000000000000000000000000000000000000000000000000000000008152600401610f0090612204565b60405180910390fd5b610f148383836113a3565b610f1f600082610c8c565b6001600360008573ffffffffffffffffffffffffffffffffffffffff1673ffffffffffffffffffffffffffffffffffffffff1681526020019081526020016000206000828254610f6f9190612510565b925050819055506001600360008473ffffffffffffffffffffffffffffffffffffffff1673ffffffffffffffffffffffffffffffffffffffff1681526020019081526020016000206000828254610fc69190612489565b92505081905550816002600083815260200190815260200160002060006101000a81548173ffffffffffffffffffffffffffffffffffffffff021916908373ffffffffffffffffffffffffffffffffffffffff160217905550808273ffffffffffffffffffffffffffffffffffffffff168473ffffffffffffffffffffffffffffffffffffffff167fddf252ad1be2c89b69c2b068fc378daa952ba7f163c4a11628f55a4df523b3ef60405160405180910390a46110858383836113a8565b505050565b61109382610c18565b6110d2576040517f08c379a00000000000000000000000000000000000000000000000000000000081526004016110c9906122c4565b60405180910390fd5b806006600084815260200190815260200160002090805190602001906110f9929190611949565b505050565b8173ffffffffffffffffffffffffffffffffffffffff168373ffffffffffffffffffffffffffffffffffffffff16141561116d576040517f08c379a000000000000000000000000000000000000000000000000000000000815260040161116490612224565b60405180910390fd5b80600560008573ffffffffffffffffffffffffffffffffffffffff1673ffffffffffffffffffffffffffffffffffffffff16815260200190815260200160002060008473ffffffffffffffffffffffffffffffffffffffff1673ffffffffffffffffffffffffffffffffffffffff16815260200190815260200160002060006101000a81548160ff0219169083151502179055508173ffffffffffffffffffffffffffffffffffffffff168373ffffffffffffffffffffffffffffffffffffffff167f17307eab39ab6107e8899845ad3d59bd9653f200f220920489ca2b5937696c318360405161125e9190612167565b60405180910390a3505050565b611276848484610e23565b611282848484846113ad565b6112c1576040517f08c379a00000000000000000000000000000000000000000000000000000000081526004016112b8906121a4565b60405180910390fd5b50505050565b606060405180602001604052806000815250905090565b60606112e982610c18565b611328576040517f08c379a000000000000000000000000000000000000000000000000000000000815260040161131f90612344565b60405180910390fd5b60006113326112c7565b90506000815111611352576040518060200160405280600081525061137d565b8061135c84611544565b60405160200161136d9291906120dc565b6040516020818303038152906040525b915050919050565b61139f8282604051806020016040528060008152506116f1565b5050565b505050565b505050565b60006113ce8473ffffffffffffffffffffffffffffffffffffffff1661174c565b15611537578373ffffffffffffffffffffffffffffffffffffffff1663150b7a026113f7610c84565b8786866040518563ffffffff1660e01b8152600401611419949392919061211b565b602060405180830381600087803b15801561143357600080fd5b505af192505050801561146457506040513d601f19601f820116820180604052508101906114619190611cf5565b60015b6114e7573d8060008114611494576040519150601f19603f3d011682016040523d82523d6000602084013e611499565b606091505b506000815114156114df576040517f08c379a00000000000000000000000000000000000000000000000000000000081526004016114d6906121a4565b60405180910390fd5b805181602001fd5b63150b7a0260e01b7bffffffffffffffffffffffffffffffffffffffffffffffffffffffff1916817bffffffffffffffffffffffffffffffffffffffffffffffffffffffff19161491505061153c565b600190505b949350505050565b6060600082141561158c576040518060400160405280600181526020017f300000000000000000000000000000000000000000000000000000000000000081525090506116ec565b600082905060005b600082146115be5780806115a79061265d565b915050600a826115b791906124df565b9150611594565b60008167ffffffffffffffff811115611600577f4e487b7100000000000000000000000000000000000000000000000000000000600052604160045260246000fd5b6040519080825280601f01601f1916602001820160405280156116325781602001600182028036833780820191505090505b5090505b600085146116e55760018261164b9190612510565b9150600a8561165a91906126a6565b60306116669190612489565b60f81b8183815181106116a2577f4e487b7100000000000000000000000000000000000000000000000000000000600052603260045260246000fd5b60200101907effffffffffffffffffffffffffffffffffffffffffffffffffffffffffffff1916908160001a905350600a856116de91906124df565b9450611636565b8093505050505b919050565b6116fb838361176f565b61170860008484846113ad565b611747576040517f08c379a000000000000000000000000000000000000000000000000000000000815260040161173e906121a4565b60405180910390fd5b505050565b6000808273ffffffffffffffffffffffffffffffffffffffff163b119050919050565b600073ffffffffffffffffffffffffffffffffffffffff168273ffffffffffffffffffffffffffffffffffffffff1614156117df576040517f08c379a00000000000000000000000000000000000000000000000000000000081526004016117d6906122e4565b60405180910390fd5b6117e881610c18565b15611828576040517f08c379a000000000000000000000000000000000000000000000000000000000815260040161181f906121e4565b60405180910390fd5b611834600083836113a3565b6001600360008473ffffffffffffffffffffffffffffffffffffffff1673ffffffffffffffffffffffffffffffffffffffff16815260200190815260200160002060008282546118849190612489565b92505081905550816002600083815260200190815260200160002060006101000a81548173ffffffffffffffffffffffffffffffffffffffff021916908373ffffffffffffffffffffffffffffffffffffffff160217905550808273ffffffffffffffffffffffffffffffffffffffff16600073ffffffffffffffffffffffffffffffffffffffff167fddf252ad1be2c89b69c2b068fc378daa952ba7f163c4a11628f55a4df523b3ef60405160405180910390a4611945600083836113a8565b5050565b828054611955906125fa565b90600052602060002090601f01602090048101928261197757600085556119be565b82601f1061199057805160ff19168380011785556119be565b828001600101855582156119be579182015b828111156119bd5782518255916020019190600101906119a2565b5b5090506119cb91906119cf565b5090565b5b808211156119e85760008160009055506001016119d0565b5090565b60006119ff6119fa846123e4565b6123bf565b905082815260208101848484011115611a1757600080fd5b611a228482856125b8565b509392505050565b6000611a3d611a3884612415565b6123bf565b905082815260208101848484011115611a5557600080fd5b611a608482856125b8565b509392505050565b600081359050611a7781612c22565b92915050565b600081359050611a8c81612c39565b92915050565b600081359050611aa181612c50565b92915050565b600081519050611ab681612c50565b92915050565b600082601f830112611acd57600080fd5b8135611add8482602086016119ec565b91505092915050565b600082601f830112611af757600080fd5b8135611b07848260208601611a2a565b91505092915050565b600081359050611b1f81612c67565b92915050565b600060208284031215611b3757600080fd5b6000611b4584828501611a68565b91505092915050565b60008060408385031215611b6157600080fd5b6000611b6f85828601611a68565b9250506020611b8085828601611a68565b9150509250929050565b600080600060608486031215611b9f57600080fd5b6000611bad86828701611a68565b9350506020611bbe86828701611a68565b9250506040611bcf86828701611b10565b9150509250925092565b60008060008060808587031215611bef57600080fd5b6000611bfd87828801611a68565b9450506020611c0e87828801611a68565b9350506040611c1f87828801611b10565b925050606085013567ffffffffffffffff811115611c3c57600080fd5b611c4887828801611abc565b91505092959194509250565b60008060408385031215611c6757600080fd5b6000611c7585828601611a68565b9250506020611c8685828601611a7d565b9150509250929050565b60008060408385031215611ca357600080fd5b6000611cb185828601611a68565b9250506020611cc285828601611b10565b9150509250929050565b600060208284031215611cde57600080fd5b6000611cec84828501611a92565b91505092915050565b600060208284031215611d0757600080fd5b6000611d1584828501611aa7565b91505092915050565b600060208284031215611d3057600080fd5b600082013567ffffffffffffffff811115611d4a57600080fd5b611d5684828501611ae6565b91505092915050565b60008060408385031215611d7257600080fd5b600083013567ffffffffffffffff811115611d8c57600080fd5b611d9885828601611ae6565b9250506020611da985828601611b10565b9150509250929050565b600060208284031215611dc557600080fd5b6000611dd384828501611b10565b91505092915050565b611de581612544565b82525050565b611df481612556565b82525050565b6000611e0582612446565b611e0f818561245c565b9350611e1f8185602086016125c7565b611e2881612793565b840191505092915050565b6000611e3e82612451565b611e48818561246d565b9350611e588185602086016125c7565b611e6181612793565b840191505092915050565b6000611e7782612451565b611e81818561247e565b9350611e918185602086016125c7565b80840191505092915050565b6000611eaa60328361246d565b9150611eb5826127a4565b604082019050919050565b6000611ecd60258361246d565b9150611ed8826127f3565b604082019050919050565b6000611ef0601c8361246d565b9150611efb82612842565b602082019050919050565b6000611f1360248361246d565b9150611f1e8261286b565b604082019050919050565b6000611f3660198361246d565b9150611f41826128ba565b602082019050919050565b6000611f59602c8361246d565b9150611f64826128e3565b604082019050919050565b6000611f7c60388361246d565b9150611f8782612932565b604082019050919050565b6000611f9f602a8361246d565b9150611faa82612981565b604082019050919050565b6000611fc260298361246d565b9150611fcd826129d0565b604082019050919050565b6000611fe5602e8361246d565b9150611ff082612a1f565b604082019050919050565b600061200860208361246d565b915061201382612a6e565b602082019050919050565b600061202b60318361246d565b915061203682612a97565b604082019050919050565b600061204e602c8361246d565b915061205982612ae6565b604082019050919050565b6000612071602f8361246d565b915061207c82612b35565b604082019050919050565b600061209460218361246d565b915061209f82612b84565b604082019050919050565b60006120b760318361246d565b91506120c282612bd3565b604082019050919050565b6120d6816125ae565b82525050565b60006120e88285611e6c565b91506120f48284611e6c565b91508190509392505050565b60006020820190506121156000830184611ddc565b92915050565b60006080820190506121306000830187611ddc565b61213d6020830186611ddc565b61214a60408301856120cd565b818103606083015261215c8184611dfa565b905095945050505050565b600060208201905061217c6000830184611deb565b92915050565b6000602082019050818103600083015261219c8184611e33565b905092915050565b600060208201905081810360008301526121bd81611e9d565b9050919050565b600060208201905081810360008301526121dd81611ec0565b9050919050565b600060208201905081810360008301526121fd81611ee3565b9050919050565b6000602082019050818103600083015261221d81611f06565b9050919050565b6000602082019050818103600083015261223d81611f29565b9050919050565b6000602082019050818103600083015261225d81611f4c565b9050919050565b6000602082019050818103600083015261227d81611f6f565b9050919050565b6000602082019050818103600083015261229d81611f92565b9050919050565b600060208201905081810360008301526122bd81611fb5565b9050919050565b600060208201905081810360008301526122dd81611fd8565b9050919050565b600060208201905081810360008301526122fd81611ffb565b9050919050565b6000602082019050818103600083015261231d8161201e565b9050919050565b6000602082019050818103600083015261233d81612041565b9050919050565b6000602082019050818103600083015261235d81612064565b9050919050565b6000602082019050818103600083015261237d81612087565b9050919050565b6000602082019050818103600083015261239d816120aa565b9050919050565b60006020820190506123b960008301846120cd565b92915050565b60006123c96123da565b90506123d5828261262c565b919050565b6000604051905090565b600067ffffffffffffffff8211156123ff576123fe612764565b5b61240882612793565b9050602081019050919050565b600067ffffffffffffffff8211156124305761242f612764565b5b61243982612793565b9050602081019050919050565b600081519050919050565b600081519050919050565b600082825260208201905092915050565b600082825260208201905092915050565b600081905092915050565b6000612494826125ae565b915061249f836125ae565b9250827fffffffffffffffffffffffffffffffffffffffffffffffffffffffffffffffff038211156124d4576124d36126d7565b5b828201905092915050565b60006124ea826125ae565b91506124f5836125ae565b92508261250557612504612706565b5b828204905092915050565b600061251b826125ae565b9150612526836125ae565b925082821015612539576125386126d7565b5b828203905092915050565b600061254f8261258e565b9050919050565b60008115159050919050565b60007fffffffff0000000000000000000000000000000000000000000000000000000082169050919050565b600073ffffffffffffffffffffffffffffffffffffffff82169050919050565b6000819050919050565b82818337600083830152505050565b60005b838110156125e55780820151818401526020810190506125ca565b838111156125f4576000848401525b50505050565b6000600282049050600182168061261257607f821691505b6020821081141561262657612625612735565b5b50919050565b61263582612793565b810181811067ffffffffffffffff8211171561265457612653612764565b5b80604052505050565b6000612668826125ae565b91507fffffffffffffffffffffffffffffffffffffffffffffffffffffffffffffffff82141561269b5761269a6126d7565b5b600182019050919050565b60006126b1826125ae565b91506126bc836125ae565b9250826126cc576126cb612706565b5b828206905092915050565b7f4e487b7100000000000000000000000000000000000000000000000000000000600052601160045260246000fd5b7f4e487b7100000000000000000000000000000000000000000000000000000000600052601260045260246000fd5b7f4e487b7100000000000000000000000000000000000000000000000000000000600052602260045260246000fd5b7f4e487b7100000000000000000000000000000000000000000000000000000000600052604160045260246000fd5b6000601f19601f8301169050919050565b7f4552433732313a207472616e7366657220746f206e6f6e20455243373231526560008201527f63656976657220696d706c656d656e7465720000000000000000000000000000602082015250565b7f4552433732313a207472616e736665722066726f6d20696e636f72726563742060008201527f6f776e6572000000000000000000000000000000000000000000000000000000602082015250565b7f4552433732313a20746f6b656e20616c7265616479206d696e74656400000000600082015250565b7f4552433732313a207472616e7366657220746f20746865207a65726f2061646460008201527f7265737300000000000000000000000000000000000000000000000000000000602082015250565b7f4552433732313a20617070726f766520746f2063616c6c657200000000000000600082015250565b7f4552433732313a206f70657261746f7220717565727920666f72206e6f6e657860008201527f697374656e7420746f6b656e0000000000000000000000000000000000000000602082015250565b7f4552433732313a20617070726f76652063616c6c6572206973206e6f74206f7760008201527f6e6572206e6f7220617070726f76656420666f7220616c6c0000000000000000602082015250565b7f4552433732313a2062616c616e636520717565727920666f7220746865207a6560008201527f726f206164647265737300000000000000000000000000000000000000000000602082015250565b7f4552433732313a206f776e657220717565727920666f72206e6f6e657869737460008201527f656e7420746f6b656e0000000000000000000000000000000000000000000000602082015250565b7f45524337323155524953746f726167653a2055524920736574206f66206e6f6e60008201527f6578697374656e7420746f6b656e000000000000000000000000000000000000602082015250565b7f4552433732313a206d696e7420746f20746865207a65726f2061646472657373600082015250565b7f45524337323155524953746f726167653a2055524920717565727920666f722060008201527f6e6f6e6578697374656e7420746f6b656e000000000000000000000000000000602082015250565b7f4552433732313a20617070726f76656420717565727920666f72206e6f6e657860008201527f697374656e7420746f6b656e0000000000000000000000000000000000000000602082015250565b7f4552433732314d657461646174613a2055524920717565727920666f72206e6f60008201527f6e6578697374656e7420746f6b656e0000000000000000000000000000000000602082015250565b7f4552433732313a20617070726f76616c20746f2063757272656e74206f776e6560008201527f7200000000000000000000000000000000000000000000000000000000000000602082015250565b7f4552433732313a207472616e736665722063616c6c6572206973206e6f74206f60008201527f776e6572206e6f7220617070726f766564000000000000000000000000000000602082015250565b612c2b81612544565b8114612c3657600080fd5b50565b612c4281612556565b8114612c4d57600080fd5b50565b612c5981612562565b8114612c6457600080fd5b50565b612c70816125ae565b8114612c7b57600080fd5b5056fea2646970667358221220328fe95ca6108be7e9b531e385f71e9846d14ea94cf9eb03ab6d66c8e64f310864736f6c63430008040033",
  "linkReferences": {},
  "deployedLinkReferences": {}
}