{
  "_format": "hh-sol-artifact-1",
  "contractName": "NFT",
  "sourceName": "src/backend/contracts/NFT.sol",
  "abi": [
    {
      "inputs": [],
      "stateMutability": "nonpayable",
      "type": "constructor"
    },
    {
      "anonymous": false,
      "inputs": [
        {
          "indexed": true,
          "internalType": "address",
          "name": "owner",
          "type": "address"
        },
        {
          "indexed": true,
          "internalType": "address",
          "name": "approved",
          "type": "address"
        },
        {
          "indexed": true,
          "internalType": "uint256",
          "name": "tokenId",
          "type": "uint256"
        }
      ],
      "name": "Approval",
      "type": "event"
    },
    {
      "anonymous": false,
      "inputs": [
        {
          "indexed": true,
          "internalType": "address",
          "name": "owner",
          "type": "address"
        },
        {
          "indexed": true,
          "internalType": "address",
          "name": "operator",
          "type": "address"
        },
        {
          "indexed": false,
          "internalType": "bool",
          "name": "approved",
          "type": "bool"
        }
      ],
      "name": "ApprovalForAll",
      "type": "event"
    },
    {
      "anonymous": false,
      "inputs": [
        {
          "indexed": true,
          "internalType": "address",
          "name": "from",
          "type": "address"
        },
        {
          "indexed": true,
          "internalType": "address",
          "name": "to",
          "type": "address"
        },
        {
          "indexed": true,
          "internalType": "uint256",
          "name": "tokenId",
          "type": "uint256"
        }
      ],
      "name": "Transfer",
      "type": "event"
    },
    {
      "inputs": [
        {
          "internalType": "address",
          "name": "to",
          "type": "address"
        },
        {
          "internalType": "uint256",
          "name": "tokenId",
          "type": "uint256"
        }
      ],
      "name": "approve",
      "outputs": [],
      "stateMutability": "nonpayable",
      "type": "function"
    },
    {
      "inputs": [
        {
          "internalType": "address",
          "name": "owner",
          "type": "address"
        }
      ],
      "name": "balanceOf",
      "outputs": [
        {
          "internalType": "uint256",
          "name": "",
          "type": "uint256"
        }
      ],
      "stateMutability": "view",
      "type": "function"
    },
    {
      "inputs": [
        {
          "internalType": "uint256",
          "name": "tokenId",
          "type": "uint256"
        }
      ],
      "name": "getApproved",
      "outputs": [
        {
          "internalType": "address",
          "name": "",
          "type": "address"
        }
      ],
      "stateMutability": "view",
      "type": "function"
    },
    {
      "inputs": [
        {
          "internalType": "address",
          "name": "owner",
          "type": "address"
        },
        {
          "internalType": "address",
          "name": "operator",
          "type": "address"
        }
      ],
      "name": "isApprovedForAll",
      "outputs": [
        {
          "internalType": "bool",
          "name": "",
          "type": "bool"
        }
      ],
      "stateMutability": "view",
      "type": "function"
    },
    {
      "inputs": [
        {
          "internalType": "string",
          "name": "_tokenURI",
          "type": "string"
        }
      ],
      "name": "mint",
      "outputs": [
        {
          "internalType": "uint256",
          "name": "",
          "type": "uint256"
        }
      ],
      "stateMutability": "nonpayable",
      "type": "function"
    },
    {
      "inputs": [],
      "name": "name",
      "outputs": [
        {
          "internalType": "string",
          "name": "",
          "type": "string"
        }
      ],
      "stateMutability": "view",
      "type": "function"
    },
    {
      "inputs": [
        {
          "internalType": "uint256",
          "name": "tokenId",
          "type": "uint256"
        }
      ],
      "name": "ownerOf",
      "outputs": [
        {
          "internalType": "address",
          "name": "",
          "type": "address"
        }
      ],
      "stateMutability": "view",
      "type": "function"
    },
    {
      "inputs": [
        {
          "internalType": "address",
          "name": "from",
          "type": "address"
        },
        {
          "internalType": "address",
          "name": "to",
          "type": "address"
        },
        {
          "internalType": "uint256",
          "name": "tokenId",
          "type": "uint256"
        }
      ],
      "name": "safeTransferFrom",
      "outputs": [],
      "stateMutability": "nonpayable",
      "type": "function"
    },
    {
      "inputs": [
        {
          "internalType": "address",
          "name": "from",
          "type": "address"
        },
        {
          "internalType": "address",
          "name": "to",
          "type": "address"
        },
        {
          "internalType": "uint256",
          "name": "tokenId",
          "type": "uint256"
        },
        {
          "internalType": "bytes",
          "name": "_data",
          "type": "bytes"
        }
      ],
      "name": "safeTransferFrom",
      "outputs": [],
      "stateMutability": "nonpayable",
      "type": "function"
    },
    {
      "inputs": [
        {
          "internalType": "address",
          "name": "operator",
          "type": "address"
        },
        {
          "internalType": "bool",
          "name": "approved",
          "type": "bool"
        }
      ],
      "name": "setApprovalForAll",
      "outputs": [],
      "stateMutability": "nonpayable",
      "type": "function"
    },
    {
      "inputs": [
        {
          "internalType": "string",
          "name": "_tokenURI",
          "type": "string"
        },
        {
          "internalType": "uint256",
          "name": "tokenId",
          "type": "uint256"
        }
      ],
      "name": "setTokenURL",
      "outputs": [
        {
          "internalType": "bool",
          "name": "",
          "type": "bool"
        }
      ],
      "stateMutability": "nonpayable",
      "type": "function"
    },
    {
      "inputs": [
        {
          "internalType": "bytes4",
          "name": "interfaceId",
          "type": "bytes4"
        }
      ],
      "name": "supportsInterface",
      "outputs": [
        {
          "internalType": "bool",
          "name": "",
          "type": "bool"
        }
      ],
      "stateMutability": "view",
      "type": "function"
    },
    {
      "inputs": [],
      "name": "symbol",
      "outputs": [
        {
          "internalType": "string",
          "name": "",
          "type": "string"
        }
      ],
      "stateMutability": "view",
      "type": "function"
    },
    {
      "inputs": [],
      "name": "tokenCount",
      "outputs": [
        {
          "internalType": "uint256",
          "name": "",
          "type": "uint256"
        }
      ],
      "stateMutability": "view",
      "type": "function"
    },
    {
      "inputs": [
        {
          "internalType": "uint256",
          "name": "tokenId",
          "type": "uint256"
        }
      ],
      "name": "tokenURI",
      "outputs": [
        {
          "internalType": "string",
          "name": "",
          "type": "string"
        }
      ],
      "stateMutability": "view",
      "type": "function"
    },
    {
      "inputs": [
        {
          "internalType": "address",
          "name": "from",
          "type": "address"
        },
        {
          "internalType": "address",
          "name": "to",
          "type": "address"
        },
        {
          "internalType": "uint256",
          "name": "tokenId",
          "type": "uint256"
        }
      ],
      "name": "transferFrom",
      "outputs": [],
      "stateMutability": "nonpayable",
      "type": "function"
    }
  ],
  "bytecode": "0x60806040523480156200001157600080fd5b506040518060400160405280600881526020017f44417070204e46540000000000000000000000000000000000000000000000008152506040518060400160405280600481526020017f444150500000000000000000000000000000000000000000000000000000000081525081600090816200008f919062000324565b508060019081620000a1919062000324565b5050506200040b565b600081519050919050565b7f4e487b7100000000000000000000000000000000000000000000000000000000600052604160045260246000fd5b7f4e487b7100000000000000000000000000000000000000000000000000000000600052602260045260246000fd5b600060028204905060018216806200012c57607f821691505b602082108103620001425762000141620000e4565b5b50919050565b60008190508160005260206000209050919050565b60006020601f8301049050919050565b600082821b905092915050565b600060088302620001ac7fffffffffffffffffffffffffffffffffffffffffffffffffffffffffffffffff826200016d565b620001b886836200016d565b95508019841693508086168417925050509392505050565b6000819050919050565b6000819050919050565b600062000205620001ff620001f984620001d0565b620001da565b620001d0565b9050919050565b6000819050919050565b6200022183620001e4565b6200023962000230826200020c565b8484546200017a565b825550505050565b600090565b6200025062000241565b6200025d81848462000216565b505050565b5b8181101562000285576200027960008262000246565b60018101905062000263565b5050565b601f821115620002d4576200029e8162000148565b620002a9846200015d565b81016020851015620002b9578190505b620002d1620002c8856200015d565b83018262000262565b50505b505050565b600082821c905092915050565b6000620002f960001984600802620002d9565b1980831691505092915050565b6000620003148383620002e6565b9150826002028217905092915050565b6200032f82620000aa565b67ffffffffffffffff8111156200034b576200034a620000b5565b5b62000357825462000113565b6200036482828562000289565b600060209050601f8311600181146200039c576000841562000387578287015190505b62000393858262000306565b86555062000403565b601f198416620003ac8662000148565b60005b82811015620003d657848901518255600182019150602085019450602081019050620003af565b86831015620003f65784890151620003f2601f891682620002e6565b8355505b6001600288020188555050505b505050505050565b612e82806200041b6000396000f3fe608060405234801561001057600080fd5b50600436106101005760003560e01c806392639ea111610097578063b88d4fde11610066578063b88d4fde146102bf578063c87b56dd146102db578063d85d3d271461030b578063e985e9c51461033b57610100565b806392639ea11461023757806395d89b41146102675780639f181b5e14610285578063a22cb465146102a357610100565b806323b872dd116100d357806323b872dd1461019f57806342842e0e146101bb5780636352211e146101d757806370a082311461020757610100565b806301ffc9a71461010557806306fdde0314610135578063081812fc14610153578063095ea7b314610183575b600080fd5b61011f600480360381019061011a919061194a565b61036b565b60405161012c9190611992565b60405180910390f35b61013d61044d565b60405161014a9190611a3d565b60405180910390f35b61016d60048036038101906101689190611a95565b6104df565b60405161017a9190611b03565b60405180910390f35b61019d60048036038101906101989190611b4a565b610564565b005b6101b960048036038101906101b49190611b8a565b61067b565b005b6101d560048036038101906101d09190611b8a565b6106db565b005b6101f160048036038101906101ec9190611a95565b6106fb565b6040516101fe9190611b03565b60405180910390f35b610221600480360381019061021c9190611bdd565b6107ac565b60405161022e9190611c19565b60405180910390f35b610251600480360381019061024c9190611d69565b610863565b60405161025e9190611992565b60405180910390f35b61026f610879565b60405161027c9190611a3d565b60405180910390f35b61028d61090b565b60405161029a9190611c19565b60405180910390f35b6102bd60048036038101906102b89190611df1565b610911565b005b6102d960048036038101906102d49190611ed2565b610927565b005b6102f560048036038101906102f09190611a95565b610989565b6040516103029190611a3d565b60405180910390f35b61032560048036038101906103209190611f55565b610ada565b6040516103329190611c19565b60405180910390f35b61035560048036038101906103509190611f9e565b610b16565b6040516103629190611992565b60405180910390f35b60007f80ac58cd000000000000000000000000000000000000000000000000000000007bffffffffffffffffffffffffffffffffffffffffffffffffffffffff1916827bffffffffffffffffffffffffffffffffffffffffffffffffffffffff1916148061043657507f5b5e139f000000000000000000000000000000000000000000000000000000007bffffffffffffffffffffffffffffffffffffffffffffffffffffffff1916827bffffffffffffffffffffffffffffffffffffffffffffffffffffffff1916145b80610446575061044582610baa565b5b9050919050565b60606000805461045c9061200d565b80601f01602080910402602001604051908101604052809291908181526020018280546104889061200d565b80156104d55780601f106104aa576101008083540402835291602001916104d5565b820191906000526020600020905b8154815290600101906020018083116104b857829003601f168201915b5050505050905090565b60006104ea82610c14565b610529576040517f08c379a0000000000000000000000000000000000000000000000000000000008152600401610520906120b0565b60405180910390fd5b6004600083815260200190815260200160002060009054906101000a900473ffffffffffffffffffffffffffffffffffffffff169050919050565b600061056f826106fb565b90508073ffffffffffffffffffffffffffffffffffffffff168373ffffffffffffffffffffffffffffffffffffffff16036105df576040517f08c379a00000000000000000000000000000000000000000000000000000000081526004016105d690612142565b60405180910390fd5b8073ffffffffffffffffffffffffffffffffffffffff166105fe610c80565b73ffffffffffffffffffffffffffffffffffffffff16148061062d575061062c81610627610c80565b610b16565b5b61066c576040517f08c379a0000000000000000000000000000000000000000000000000000000008152600401610663906121d4565b60405180910390fd5b6106768383610c88565b505050565b61068c610686610c80565b82610d41565b6106cb576040517f08c379a00000000000000000000000000000000000000000000000000000000081526004016106c290612266565b60405180910390fd5b6106d6838383610e1f565b505050565b6106f683838360405180602001604052806000815250610927565b505050565b6000806002600084815260200190815260200160002060009054906101000a900473ffffffffffffffffffffffffffffffffffffffff169050600073ffffffffffffffffffffffffffffffffffffffff168173ffffffffffffffffffffffffffffffffffffffff16036107a3576040517f08c379a000000000000000000000000000000000000000000000000000000000815260040161079a906122f8565b60405180910390fd5b80915050919050565b60008073ffffffffffffffffffffffffffffffffffffffff168273ffffffffffffffffffffffffffffffffffffffff160361081c576040517f08c379a00000000000000000000000000000000000000000000000000000000081526004016108139061238a565b60405180910390fd5b600360008373ffffffffffffffffffffffffffffffffffffffff1673ffffffffffffffffffffffffffffffffffffffff168152602001908152602001600020549050919050565b600061086f8284611085565b6001905092915050565b6060600180546108889061200d565b80601f01602080910402602001604051908101604052809291908181526020018280546108b49061200d565b80156109015780601f106108d657610100808354040283529160200191610901565b820191906000526020600020905b8154815290600101906020018083116108e457829003601f168201915b5050505050905090565b60075481565b61092361091c610c80565b83836110f2565b5050565b610938610932610c80565b83610d41565b610977576040517f08c379a000000000000000000000000000000000000000000000000000000000815260040161096e90612266565b60405180910390fd5b6109838484848461125e565b50505050565b606061099482610c14565b6109d3576040517f08c379a00000000000000000000000000000000000000000000000000000000081526004016109ca9061241c565b60405180910390fd5b60006006600084815260200190815260200160002080546109f39061200d565b80601f0160208091040260200160405190810160405280929190818152602001828054610a1f9061200d565b8015610a6c5780601f10610a4157610100808354040283529160200191610a6c565b820191906000526020600020905b815481529060010190602001808311610a4f57829003601f168201915b505050505090506000610a7d6112ba565b90506000815103610a92578192505050610ad5565b600082511115610ac7578082604051602001610aaf929190612478565b60405160208183030381529060405292505050610ad5565b610ad0846112d1565b925050505b919050565b600060076000815480929190610aef906124cb565b9190505550610b0033600754611378565b610b0c60075483611085565b6007549050919050565b6000600560008473ffffffffffffffffffffffffffffffffffffffff1673ffffffffffffffffffffffffffffffffffffffff16815260200190815260200160002060008373ffffffffffffffffffffffffffffffffffffffff1673ffffffffffffffffffffffffffffffffffffffff16815260200190815260200160002060009054906101000a900460ff16905092915050565b60007f01ffc9a7000000000000000000000000000000000000000000000000000000007bffffffffffffffffffffffffffffffffffffffffffffffffffffffff1916827bffffffffffffffffffffffffffffffffffffffffffffffffffffffff1916149050919050565b60008073ffffffffffffffffffffffffffffffffffffffff166002600084815260200190815260200160002060009054906101000a900473ffffffffffffffffffffffffffffffffffffffff1673ffffffffffffffffffffffffffffffffffffffff1614159050919050565b600033905090565b816004600083815260200190815260200160002060006101000a81548173ffffffffffffffffffffffffffffffffffffffff021916908373ffffffffffffffffffffffffffffffffffffffff160217905550808273ffffffffffffffffffffffffffffffffffffffff16610cfb836106fb565b73ffffffffffffffffffffffffffffffffffffffff167f8c5be1e5ebec7d5bd14f71427d1e84f3dd0314c0f7b2291e5b200ac8c7c3b92560405160405180910390a45050565b6000610d4c82610c14565b610d8b576040517f08c379a0000000000000000000000000000000000000000000000000000000008152600401610d8290612585565b60405180910390fd5b6000610d96836106fb565b90508073ffffffffffffffffffffffffffffffffffffffff168473ffffffffffffffffffffffffffffffffffffffff161480610e0557508373ffffffffffffffffffffffffffffffffffffffff16610ded846104df565b73ffffffffffffffffffffffffffffffffffffffff16145b80610e165750610e158185610b16565b5b91505092915050565b8273ffffffffffffffffffffffffffffffffffffffff16610e3f826106fb565b73ffffffffffffffffffffffffffffffffffffffff1614610e95576040517f08c379a0000000000000000000000000000000000000000000000000000000008152600401610e8c90612617565b60405180910390fd5b600073ffffffffffffffffffffffffffffffffffffffff168273ffffffffffffffffffffffffffffffffffffffff1603610f04576040517f08c379a0000000000000000000000000000000000000000000000000000000008152600401610efb906126a9565b60405180910390fd5b610f0f838383611396565b610f1a600082610c88565b6001600360008573ffffffffffffffffffffffffffffffffffffffff1673ffffffffffffffffffffffffffffffffffffffff1681526020019081526020016000206000828254610f6a91906126c9565b925050819055506001600360008473ffffffffffffffffffffffffffffffffffffffff1673ffffffffffffffffffffffffffffffffffffffff1681526020019081526020016000206000828254610fc191906126fd565b92505081905550816002600083815260200190815260200160002060006101000a81548173ffffffffffffffffffffffffffffffffffffffff021916908373ffffffffffffffffffffffffffffffffffffffff160217905550808273ffffffffffffffffffffffffffffffffffffffff168473ffffffffffffffffffffffffffffffffffffffff167fddf252ad1be2c89b69c2b068fc378daa952ba7f163c4a11628f55a4df523b3ef60405160405180910390a461108083838361139b565b505050565b61108e82610c14565b6110cd576040517f08c379a00000000000000000000000000000000000000000000000000000000081526004016110c4906127a3565b60405180910390fd5b806006600084815260200190815260200160002090816110ed919061296f565b505050565b8173ffffffffffffffffffffffffffffffffffffffff168373ffffffffffffffffffffffffffffffffffffffff1603611160576040517f08c379a000000000000000000000000000000000000000000000000000000000815260040161115790612a8d565b60405180910390fd5b80600560008573ffffffffffffffffffffffffffffffffffffffff1673ffffffffffffffffffffffffffffffffffffffff16815260200190815260200160002060008473ffffffffffffffffffffffffffffffffffffffff1673ffffffffffffffffffffffffffffffffffffffff16815260200190815260200160002060006101000a81548160ff0219169083151502179055508173ffffffffffffffffffffffffffffffffffffffff168373ffffffffffffffffffffffffffffffffffffffff167f17307eab39ab6107e8899845ad3d59bd9653f200f220920489ca2b5937696c31836040516112519190611992565b60405180910390a3505050565b611269848484610e1f565b611275848484846113a0565b6112b4576040517f08c379a00000000000000000000000000000000000000000000000000000000081526004016112ab90612b1f565b60405180910390fd5b50505050565b606060405180602001604052806000815250905090565b60606112dc82610c14565b61131b576040517f08c379a000000000000000000000000000000000000000000000000000000000815260040161131290612bb1565b60405180910390fd5b60006113256112ba565b905060008151116113455760405180602001604052806000815250611370565b8061134f84611527565b604051602001611360929190612478565b6040516020818303038152906040525b915050919050565b611392828260405180602001604052806000815250611687565b5050565b505050565b505050565b60006113c18473ffffffffffffffffffffffffffffffffffffffff166116e2565b1561151a578373ffffffffffffffffffffffffffffffffffffffff1663150b7a026113ea610c80565b8786866040518563ffffffff1660e01b815260040161140c9493929190612c26565b6020604051808303816000875af192505050801561144857506040513d601f19601f820116820180604052508101906114459190612c87565b60015b6114ca573d8060008114611478576040519150601f19603f3d011682016040523d82523d6000602084013e61147d565b606091505b5060008151036114c2576040517f08c379a00000000000000000000000000000000000000000000000000000000081526004016114b990612b1f565b60405180910390fd5b805181602001fd5b63150b7a0260e01b7bffffffffffffffffffffffffffffffffffffffffffffffffffffffff1916817bffffffffffffffffffffffffffffffffffffffffffffffffffffffff19161491505061151f565b600190505b949350505050565b60606000820361156e576040518060400160405280600181526020017f30000000000000000000000000000000000000000000000000000000000000008152509050611682565b600082905060005b600082146115a0578080611589906124cb565b915050600a826115999190612ce3565b9150611576565b60008167ffffffffffffffff8111156115bc576115bb611c3e565b5b6040519080825280601f01601f1916602001820160405280156115ee5781602001600182028036833780820191505090505b5090505b6000851461167b5760018261160791906126c9565b9150600a856116169190612d14565b603061162291906126fd565b60f81b81838151811061163857611637612d45565b5b60200101907effffffffffffffffffffffffffffffffffffffffffffffffffffffffffffff1916908160001a905350600a856116749190612ce3565b94506115f2565b8093505050505b919050565b6116918383611705565b61169e60008484846113a0565b6116dd576040517f08c379a00000000000000000000000000000000000000000000000000000000081526004016116d490612b1f565b60405180910390fd5b505050565b6000808273ffffffffffffffffffffffffffffffffffffffff163b119050919050565b600073ffffffffffffffffffffffffffffffffffffffff168273ffffffffffffffffffffffffffffffffffffffff1603611774576040517f08c379a000000000000000000000000000000000000000000000000000000000815260040161176b90612dc0565b60405180910390fd5b61177d81610c14565b156117bd576040517f08c379a00000000000000000000000000000000000000000000000000000000081526004016117b490612e2c565b60405180910390fd5b6117c960008383611396565b6001600360008473ffffffffffffffffffffffffffffffffffffffff1673ffffffffffffffffffffffffffffffffffffffff168152602001908152602001600020600082825461181991906126fd565b92505081905550816002600083815260200190815260200160002060006101000a81548173ffffffffffffffffffffffffffffffffffffffff021916908373ffffffffffffffffffffffffffffffffffffffff160217905550808273ffffffffffffffffffffffffffffffffffffffff16600073ffffffffffffffffffffffffffffffffffffffff167fddf252ad1be2c89b69c2b068fc378daa952ba7f163c4a11628f55a4df523b3ef60405160405180910390a46118da6000838361139b565b5050565b6000604051905090565b600080fd5b600080fd5b60007fffffffff0000000000000000000000000000000000000000000000000000000082169050919050565b611927816118f2565b811461193257600080fd5b50565b6000813590506119448161191e565b92915050565b6000602082840312156119605761195f6118e8565b5b600061196e84828501611935565b91505092915050565b60008115159050919050565b61198c81611977565b82525050565b60006020820190506119a76000830184611983565b92915050565b600081519050919050565b600082825260208201905092915050565b60005b838110156119e75780820151818401526020810190506119cc565b60008484015250505050565b6000601f19601f8301169050919050565b6000611a0f826119ad565b611a1981856119b8565b9350611a298185602086016119c9565b611a32816119f3565b840191505092915050565b60006020820190508181036000830152611a578184611a04565b905092915050565b6000819050919050565b611a7281611a5f565b8114611a7d57600080fd5b50565b600081359050611a8f81611a69565b92915050565b600060208284031215611aab57611aaa6118e8565b5b6000611ab984828501611a80565b91505092915050565b600073ffffffffffffffffffffffffffffffffffffffff82169050919050565b6000611aed82611ac2565b9050919050565b611afd81611ae2565b82525050565b6000602082019050611b186000830184611af4565b92915050565b611b2781611ae2565b8114611b3257600080fd5b50565b600081359050611b4481611b1e565b92915050565b60008060408385031215611b6157611b606118e8565b5b6000611b6f85828601611b35565b9250506020611b8085828601611a80565b9150509250929050565b600080600060608486031215611ba357611ba26118e8565b5b6000611bb186828701611b35565b9350506020611bc286828701611b35565b9250506040611bd386828701611a80565b9150509250925092565b600060208284031215611bf357611bf26118e8565b5b6000611c0184828501611b35565b91505092915050565b611c1381611a5f565b82525050565b6000602082019050611c2e6000830184611c0a565b92915050565b600080fd5b600080fd5b7f4e487b7100000000000000000000000000000000000000000000000000000000600052604160045260246000fd5b611c76826119f3565b810181811067ffffffffffffffff82111715611c9557611c94611c3e565b5b80604052505050565b6000611ca86118de565b9050611cb48282611c6d565b919050565b600067ffffffffffffffff821115611cd457611cd3611c3e565b5b611cdd826119f3565b9050602081019050919050565b82818337600083830152505050565b6000611d0c611d0784611cb9565b611c9e565b905082815260208101848484011115611d2857611d27611c39565b5b611d33848285611cea565b509392505050565b600082601f830112611d5057611d4f611c34565b5b8135611d60848260208601611cf9565b91505092915050565b60008060408385031215611d8057611d7f6118e8565b5b600083013567ffffffffffffffff811115611d9e57611d9d6118ed565b5b611daa85828601611d3b565b9250506020611dbb85828601611a80565b9150509250929050565b611dce81611977565b8114611dd957600080fd5b50565b600081359050611deb81611dc5565b92915050565b60008060408385031215611e0857611e076118e8565b5b6000611e1685828601611b35565b9250506020611e2785828601611ddc565b9150509250929050565b600067ffffffffffffffff821115611e4c57611e4b611c3e565b5b611e55826119f3565b9050602081019050919050565b6000611e75611e7084611e31565b611c9e565b905082815260208101848484011115611e9157611e90611c39565b5b611e9c848285611cea565b509392505050565b600082601f830112611eb957611eb8611c34565b5b8135611ec9848260208601611e62565b91505092915050565b60008060008060808587031215611eec57611eeb6118e8565b5b6000611efa87828801611b35565b9450506020611f0b87828801611b35565b9350506040611f1c87828801611a80565b925050606085013567ffffffffffffffff811115611f3d57611f3c6118ed565b5b611f4987828801611ea4565b91505092959194509250565b600060208284031215611f6b57611f6a6118e8565b5b600082013567ffffffffffffffff811115611f8957611f886118ed565b5b611f9584828501611d3b565b91505092915050565b60008060408385031215611fb557611fb46118e8565b5b6000611fc385828601611b35565b9250506020611fd485828601611b35565b9150509250929050565b7f4e487b7100000000000000000000000000000000000000000000000000000000600052602260045260246000fd5b6000600282049050600182168061202557607f821691505b60208210810361203857612037611fde565b5b50919050565b7f4552433732313a20617070726f76656420717565727920666f72206e6f6e657860008201527f697374656e7420746f6b656e0000000000000000000000000000000000000000602082015250565b600061209a602c836119b8565b91506120a58261203e565b604082019050919050565b600060208201905081810360008301526120c98161208d565b9050919050565b7f4552433732313a20617070726f76616c20746f2063757272656e74206f776e6560008201527f7200000000000000000000000000000000000000000000000000000000000000602082015250565b600061212c6021836119b8565b9150612137826120d0565b604082019050919050565b6000602082019050818103600083015261215b8161211f565b9050919050565b7f4552433732313a20617070726f76652063616c6c6572206973206e6f74206f7760008201527f6e6572206e6f7220617070726f76656420666f7220616c6c0000000000000000602082015250565b60006121be6038836119b8565b91506121c982612162565b604082019050919050565b600060208201905081810360008301526121ed816121b1565b9050919050565b7f4552433732313a207472616e736665722063616c6c6572206973206e6f74206f60008201527f776e6572206e6f7220617070726f766564000000000000000000000000000000602082015250565b60006122506031836119b8565b915061225b826121f4565b604082019050919050565b6000602082019050818103600083015261227f81612243565b9050919050565b7f4552433732313a206f776e657220717565727920666f72206e6f6e657869737460008201527f656e7420746f6b656e0000000000000000000000000000000000000000000000602082015250565b60006122e26029836119b8565b91506122ed82612286565b604082019050919050565b60006020820190508181036000830152612311816122d5565b9050919050565b7f4552433732313a2062616c616e636520717565727920666f7220746865207a6560008201527f726f206164647265737300000000000000000000000000000000000000000000602082015250565b6000612374602a836119b8565b915061237f82612318565b604082019050919050565b600060208201905081810360008301526123a381612367565b9050919050565b7f45524337323155524953746f726167653a2055524920717565727920666f722060008201527f6e6f6e6578697374656e7420746f6b656e000000000000000000000000000000602082015250565b60006124066031836119b8565b9150612411826123aa565b604082019050919050565b60006020820190508181036000830152612435816123f9565b9050919050565b600081905092915050565b6000612452826119ad565b61245c818561243c565b935061246c8185602086016119c9565b80840191505092915050565b60006124848285612447565b91506124908284612447565b91508190509392505050565b7f4e487b7100000000000000000000000000000000000000000000000000000000600052601160045260246000fd5b60006124d682611a5f565b91507fffffffffffffffffffffffffffffffffffffffffffffffffffffffffffffffff82036125085761250761249c565b5b600182019050919050565b7f4552433732313a206f70657261746f7220717565727920666f72206e6f6e657860008201527f697374656e7420746f6b656e0000000000000000000000000000000000000000602082015250565b600061256f602c836119b8565b915061257a82612513565b604082019050919050565b6000602082019050818103600083015261259e81612562565b9050919050565b7f4552433732313a207472616e736665722066726f6d20696e636f72726563742060008201527f6f776e6572000000000000000000000000000000000000000000000000000000602082015250565b60006126016025836119b8565b915061260c826125a5565b604082019050919050565b60006020820190508181036000830152612630816125f4565b9050919050565b7f4552433732313a207472616e7366657220746f20746865207a65726f2061646460008201527f7265737300000000000000000000000000000000000000000000000000000000602082015250565b60006126936024836119b8565b915061269e82612637565b604082019050919050565b600060208201905081810360008301526126c281612686565b9050919050565b60006126d482611a5f565b91506126df83611a5f565b92508282039050818111156126f7576126f661249c565b5b92915050565b600061270882611a5f565b915061271383611a5f565b925082820190508082111561272b5761272a61249c565b5b92915050565b7f45524337323155524953746f726167653a2055524920736574206f66206e6f6e60008201527f6578697374656e7420746f6b656e000000000000000000000000000000000000602082015250565b600061278d602e836119b8565b915061279882612731565b604082019050919050565b600060208201905081810360008301526127bc81612780565b9050919050565b60008190508160005260206000209050919050565b60006020601f8301049050919050565b600082821b905092915050565b6000600883026128257fffffffffffffffffffffffffffffffffffffffffffffffffffffffffffffffff826127e8565b61282f86836127e8565b95508019841693508086168417925050509392505050565b6000819050919050565b600061286c61286761286284611a5f565b612847565b611a5f565b9050919050565b6000819050919050565b61288683612851565b61289a61289282612873565b8484546127f5565b825550505050565b600090565b6128af6128a2565b6128ba81848461287d565b505050565b5b818110156128de576128d36000826128a7565b6001810190506128c0565b5050565b601f821115612923576128f4816127c3565b6128fd846127d8565b8101602085101561290c578190505b612920612918856127d8565b8301826128bf565b50505b505050565b600082821c905092915050565b600061294660001984600802612928565b1980831691505092915050565b600061295f8383612935565b9150826002028217905092915050565b612978826119ad565b67ffffffffffffffff81111561299157612990611c3e565b5b61299b825461200d565b6129a68282856128e2565b600060209050601f8311600181146129d957600084156129c7578287015190505b6129d18582612953565b865550612a39565b601f1984166129e7866127c3565b60005b82811015612a0f578489015182556001820191506020850194506020810190506129ea565b86831015612a2c5784890151612a28601f891682612935565b8355505b6001600288020188555050505b505050505050565b7f4552433732313a20617070726f766520746f2063616c6c657200000000000000600082015250565b6000612a776019836119b8565b9150612a8282612a41565b602082019050919050565b60006020820190508181036000830152612aa681612a6a565b9050919050565b7f4552433732313a207472616e7366657220746f206e6f6e20455243373231526560008201527f63656976657220696d706c656d656e7465720000000000000000000000000000602082015250565b6000612b096032836119b8565b9150612b1482612aad565b604082019050919050565b60006020820190508181036000830152612b3881612afc565b9050919050565b7f4552433732314d657461646174613a2055524920717565727920666f72206e6f60008201527f6e6578697374656e7420746f6b656e0000000000000000000000000000000000602082015250565b6000612b9b602f836119b8565b9150612ba682612b3f565b604082019050919050565b60006020820190508181036000830152612bca81612b8e565b9050919050565b600081519050919050565b600082825260208201905092915050565b6000612bf882612bd1565b612c028185612bdc565b9350612c128185602086016119c9565b612c1b816119f3565b840191505092915050565b6000608082019050612c3b6000830187611af4565b612c486020830186611af4565b612c556040830185611c0a565b8181036060830152612c678184612bed565b905095945050505050565b600081519050612c818161191e565b92915050565b600060208284031215612c9d57612c9c6118e8565b5b6000612cab84828501612c72565b91505092915050565b7f4e487b7100000000000000000000000000000000000000000000000000000000600052601260045260246000fd5b6000612cee82611a5f565b9150612cf983611a5f565b925082612d0957612d08612cb4565b5b828204905092915050565b6000612d1f82611a5f565b9150612d2a83611a5f565b925082612d3a57612d39612cb4565b5b828206905092915050565b7f4e487b7100000000000000000000000000000000000000000000000000000000600052603260045260246000fd5b7f4552433732313a206d696e7420746f20746865207a65726f2061646472657373600082015250565b6000612daa6020836119b8565b9150612db582612d74565b602082019050919050565b60006020820190508181036000830152612dd981612d9d565b9050919050565b7f4552433732313a20746f6b656e20616c7265616479206d696e74656400000000600082015250565b6000612e16601c836119b8565b9150612e2182612de0565b602082019050919050565b60006020820190508181036000830152612e4581612e09565b905091905056fea264697066735822122088451d5563454c7e91d83bf59448c8e96d2291f5fb5f4ae21bbb770965a0685564736f6c63430008110033",
  "linkReferences": {},
  "deployedLinkReferences": {}
}