{
  "_format": "hh-sol-artifact-1",
  "contractName": "Postwork",
  "sourceName": "src/backend/contracts/Postwork.sol",
  "abi": [
    {
      "inputs": [
        {
          "internalType": "address",
          "name": "tokenAddress",
          "type": "address"
        }
      ],
      "stateMutability": "nonpayable",
      "type": "constructor"
    },
    {
      "anonymous": false,
      "inputs": [
        {
          "indexed": false,
          "internalType": "uint256",
          "name": "itemId",
          "type": "uint256"
        },
        {
          "indexed": true,
          "internalType": "address",
          "name": "nft",
          "type": "address"
        },
        {
          "indexed": false,
          "internalType": "uint256",
          "name": "tokenId",
          "type": "uint256"
        },
        {
          "indexed": false,
          "internalType": "address payable",
          "name": "owner",
          "type": "address"
        },
        {
          "indexed": true,
          "internalType": "address",
          "name": "liker",
          "type": "address"
        }
      ],
      "name": "Liked",
      "type": "event"
    },
    {
      "anonymous": false,
      "inputs": [
        {
          "indexed": false,
          "internalType": "uint256",
          "name": "itemId",
          "type": "uint256"
        },
        {
          "indexed": true,
          "internalType": "address",
          "name": "nft",
          "type": "address"
        },
        {
          "indexed": false,
          "internalType": "uint256",
          "name": "tokenId",
          "type": "uint256"
        },
        {
          "indexed": true,
          "internalType": "address",
          "name": "owner",
          "type": "address"
        },
        {
          "indexed": false,
          "internalType": "bool",
          "name": "member",
          "type": "bool"
        }
      ],
      "name": "Posted",
      "type": "event"
    },
    {
      "anonymous": false,
      "inputs": [
        {
          "indexed": false,
          "internalType": "uint256",
          "name": "time",
          "type": "uint256"
        },
        {
          "indexed": true,
          "internalType": "address",
          "name": "owner",
          "type": "address"
        },
        {
          "indexed": true,
          "internalType": "address",
          "name": "trigger",
          "type": "address"
        },
        {
          "indexed": false,
          "internalType": "string",
          "name": "state",
          "type": "string"
        }
      ],
      "name": "Record",
      "type": "event"
    },
    {
      "anonymous": false,
      "inputs": [
        {
          "indexed": false,
          "internalType": "uint256",
          "name": "itemId",
          "type": "uint256"
        },
        {
          "indexed": true,
          "internalType": "address",
          "name": "nft",
          "type": "address"
        },
        {
          "indexed": false,
          "internalType": "uint256",
          "name": "tokenId",
          "type": "uint256"
        },
        {
          "indexed": false,
          "internalType": "address payable",
          "name": "owner",
          "type": "address"
        },
        {
          "indexed": true,
          "internalType": "address",
          "name": "titter",
          "type": "address"
        }
      ],
      "name": "Twit",
      "type": "event"
    },
    {
      "inputs": [],
      "name": "airdrop",
      "outputs": [],
      "stateMutability": "payable",
      "type": "function"
    },
    {
      "inputs": [],
      "name": "itemCount",
      "outputs": [
        {
          "internalType": "uint256",
          "name": "",
          "type": "uint256"
        }
      ],
      "stateMutability": "view",
      "type": "function"
    },
    {
      "inputs": [
        {
          "internalType": "uint256",
          "name": "",
          "type": "uint256"
        }
      ],
      "name": "items",
      "outputs": [
        {
          "internalType": "uint256",
          "name": "itemId",
          "type": "uint256"
        },
        {
          "internalType": "contract IERC721",
          "name": "nft",
          "type": "address"
        },
        {
          "internalType": "uint256",
          "name": "tokenId",
          "type": "uint256"
        },
        {
          "internalType": "address payable",
          "name": "owner",
          "type": "address"
        },
        {
          "internalType": "bool",
          "name": "sold",
          "type": "bool"
        }
      ],
      "stateMutability": "view",
      "type": "function"
    },
    {
      "inputs": [
        {
          "internalType": "uint256",
          "name": "_itemId",
          "type": "uint256"
        }
      ],
      "name": "likeItem",
      "outputs": [],
      "stateMutability": "nonpayable",
      "type": "function"
    },
    {
      "inputs": [
        {
          "internalType": "bool",
          "name": "member",
          "type": "bool"
        },
        {
          "internalType": "contract IERC721",
          "name": "_nft",
          "type": "address"
        },
        {
          "internalType": "uint256",
          "name": "_tokenId",
          "type": "uint256"
        }
      ],
      "name": "postItem",
      "outputs": [],
      "stateMutability": "nonpayable",
      "type": "function"
    },
    {
      "inputs": [],
      "name": "price",
      "outputs": [
        {
          "internalType": "uint256",
          "name": "",
          "type": "uint256"
        }
      ],
      "stateMutability": "view",
      "type": "function"
    },
    {
      "inputs": [],
      "name": "rewardAmount",
      "outputs": [
        {
          "internalType": "uint256",
          "name": "",
          "type": "uint256"
        }
      ],
      "stateMutability": "view",
      "type": "function"
    },
    {
      "inputs": [],
      "name": "token",
      "outputs": [
        {
          "internalType": "contract IERC20",
          "name": "",
          "type": "address"
        }
      ],
      "stateMutability": "view",
      "type": "function"
    }
  ],
  "bytecode": "0x60806040526001600455670de0b6b3a764000060055534801561002157600080fd5b50604051610de2380380610de283398181016040528101906100439190610136565b600160008190555080600260006101000a81548173ffffffffffffffffffffffffffffffffffffffff021916908373ffffffffffffffffffffffffffffffffffffffff16021790555033600160006101000a81548173ffffffffffffffffffffffffffffffffffffffff021916908373ffffffffffffffffffffffffffffffffffffffff16021790555050610163565b600080fd5b600073ffffffffffffffffffffffffffffffffffffffff82169050919050565b6000610103826100d8565b9050919050565b610113816100f8565b811461011e57600080fd5b50565b6000815190506101308161010a565b92915050565b60006020828403121561014c5761014b6100d3565b5b600061015a84828501610121565b91505092915050565b610c70806101726000396000f3fe60806040526004361061007b5760003560e01c8063bfb231d21161004e578063bfb231d214610109578063d5d1975c1461014a578063f7b2a7be14610173578063fc0c546a1461019e5761007b565b80631443af7d146100805780633884d635146100a95780636bfb0d01146100b3578063a035b1fe146100de575b600080fd5b34801561008c57600080fd5b506100a760048036038101906100a291906107ed565b6101c9565b005b6100b16103d8565b005b3480156100bf57600080fd5b506100c86104f6565b6040516100d5919061084f565b60405180910390f35b3480156100ea57600080fd5b506100f36104fc565b604051610100919061084f565b60405180910390f35b34801561011557600080fd5b50610130600480360381019061012b919061086a565b610502565b604051610141959493929190610926565b60405180910390f35b34801561015657600080fd5b50610171600480360381019061016c919061086a565b610585565b005b34801561017f57600080fd5b506101886106de565b604051610195919061084f565b60405180910390f35b3480156101aa57600080fd5b506101b36106e4565b6040516101c0919061099a565b60405180910390f35b60026000540361020e576040517f08c379a000000000000000000000000000000000000000000000000000000000815260040161020590610a12565b60405180910390fd5b60026000819055506003600081548092919061022990610a61565b91905055506040518060a0016040528060035481526020018373ffffffffffffffffffffffffffffffffffffffff1681526020018281526020013373ffffffffffffffffffffffffffffffffffffffff168152602001600015158152506006600060035481526020019081526020016000206000820151816000015560208201518160010160006101000a81548173ffffffffffffffffffffffffffffffffffffffff021916908373ffffffffffffffffffffffffffffffffffffffff1602179055506040820151816002015560608201518160030160006101000a81548173ffffffffffffffffffffffffffffffffffffffff021916908373ffffffffffffffffffffffffffffffffffffffff16021790555060808201518160030160146101000a81548160ff0219169083151502179055509050503373ffffffffffffffffffffffffffffffffffffffff168273ffffffffffffffffffffffffffffffffffffffff167f426eae33c08f42c737aeddc0f8397dd61ad28da2668b8b1510c2d4da1f348a3760035484876040516103c393929190610aa9565b60405180910390a36001600081905550505050565b60026000540361041d576040517f08c379a000000000000000000000000000000000000000000000000000000000815260040161041490610a12565b60405180910390fd5b6002600081905550600260009054906101000a900473ffffffffffffffffffffffffffffffffffffffff1673ffffffffffffffffffffffffffffffffffffffff166323b872dd600160009054906101000a900473ffffffffffffffffffffffffffffffffffffffff16336005546040518463ffffffff1660e01b81526004016104a893929190610b10565b6020604051808303816000875af11580156104c7573d6000803e3d6000fd5b505050506040513d601f19601f820116820180604052508101906104eb9190610b5c565b506001600081905550565b60035481565b60045481565b60066020528060005260406000206000915090508060000154908060010160009054906101000a900473ffffffffffffffffffffffffffffffffffffffff16908060020154908060030160009054906101000a900473ffffffffffffffffffffffffffffffffffffffff16908060030160149054906101000a900460ff16905085565b60006006600083815260200190815260200160002090503373ffffffffffffffffffffffffffffffffffffffff168160010160009054906101000a900473ffffffffffffffffffffffffffffffffffffffff1673ffffffffffffffffffffffffffffffffffffffff167fc9bea71311cd1bdeda6109cdefd30fc469f3f687c5d1ce701abe1e0ea7640ca78484600201548560030160009054906101000a900473ffffffffffffffffffffffffffffffffffffffff1660405161064993929190610b89565b60405180910390a33373ffffffffffffffffffffffffffffffffffffffff168160030160009054906101000a900473ffffffffffffffffffffffffffffffffffffffff1673ffffffffffffffffffffffffffffffffffffffff167fe4635c9fdc6711c6ab654aa2e721c9d2cf2d3b8f3913ac8dae8bd9fb5ded6fc1426040516106d29190610c0c565b60405180910390a35050565b60055481565b600260009054906101000a900473ffffffffffffffffffffffffffffffffffffffff1681565b600080fd5b60008115159050919050565b6107248161070f565b811461072f57600080fd5b50565b6000813590506107418161071b565b92915050565b600073ffffffffffffffffffffffffffffffffffffffff82169050919050565b600061077282610747565b9050919050565b600061078482610767565b9050919050565b61079481610779565b811461079f57600080fd5b50565b6000813590506107b18161078b565b92915050565b6000819050919050565b6107ca816107b7565b81146107d557600080fd5b50565b6000813590506107e7816107c1565b92915050565b6000806000606084860312156108065761080561070a565b5b600061081486828701610732565b9350506020610825868287016107a2565b9250506040610836868287016107d8565b9150509250925092565b610849816107b7565b82525050565b60006020820190506108646000830184610840565b92915050565b6000602082840312156108805761087f61070a565b5b600061088e848285016107d8565b91505092915050565b6000819050919050565b60006108bc6108b76108b284610747565b610897565b610747565b9050919050565b60006108ce826108a1565b9050919050565b60006108e0826108c3565b9050919050565b6108f0816108d5565b82525050565b600061090182610747565b9050919050565b610911816108f6565b82525050565b6109208161070f565b82525050565b600060a08201905061093b6000830188610840565b61094860208301876108e7565b6109556040830186610840565b6109626060830185610908565b61096f6080830184610917565b9695505050505050565b6000610984826108c3565b9050919050565b61099481610979565b82525050565b60006020820190506109af600083018461098b565b92915050565b600082825260208201905092915050565b7f5265656e7472616e637947756172643a207265656e7472616e742063616c6c00600082015250565b60006109fc601f836109b5565b9150610a07826109c6565b602082019050919050565b60006020820190508181036000830152610a2b816109ef565b9050919050565b7f4e487b7100000000000000000000000000000000000000000000000000000000600052601160045260246000fd5b6000610a6c826107b7565b91507fffffffffffffffffffffffffffffffffffffffffffffffffffffffffffffffff8203610a9e57610a9d610a32565b5b600182019050919050565b6000606082019050610abe6000830186610840565b610acb6020830185610840565b610ad86040830184610917565b949350505050565b6000610aeb826108c3565b9050919050565b610afb81610ae0565b82525050565b610b0a81610767565b82525050565b6000606082019050610b256000830186610af2565b610b326020830185610b01565b610b3f6040830184610840565b949350505050565b600081519050610b568161071b565b92915050565b600060208284031215610b7257610b7161070a565b5b6000610b8084828501610b47565b91505092915050565b6000606082019050610b9e6000830186610840565b610bab6020830185610840565b610bb86040830184610908565b949350505050565b7f6c696b6500000000000000000000000000000000000000000000000000000000600082015250565b6000610bf66004836109b5565b9150610c0182610bc0565b602082019050919050565b6000604082019050610c216000830184610840565b8181036020830152610c3281610be9565b90509291505056fea26469706673582212207db3ffa18bbe8975d45df15bd32fc3a01511e86b89e399fd9f6eaa040957dcba64736f6c63430008110033",
  "linkReferences": {},
  "deployedLinkReferences": {}
}