{
  "_format": "hh-sol-artifact-1",
  "contractName": "Postwork",
  "sourceName": "src/backend/contracts/Postwork.sol",
  "abi": [
    {
      "inputs": [
        {
          "internalType": "uint256",
          "name": "_feePercent",
          "type": "uint256"
        }
      ],
      "stateMutability": "nonpayable",
      "type": "constructor"
    },
    {
      "anonymous": false,
      "inputs": [
        {
          "indexed": false,
          "internalType": "uint256",
          "name": "itemId",
          "type": "uint256"
        },
        {
          "indexed": true,
          "internalType": "address",
          "name": "nft",
          "type": "address"
        },
        {
          "indexed": false,
          "internalType": "uint256",
          "name": "tokenId",
          "type": "uint256"
        },
        {
          "indexed": true,
          "internalType": "address",
          "name": "owner",
          "type": "address"
        },
        {
          "indexed": true,
          "internalType": "address",
          "name": "liker",
          "type": "address"
        }
      ],
      "name": "Liked",
      "type": "event"
    },
    {
      "anonymous": false,
      "inputs": [
        {
          "indexed": false,
          "internalType": "uint256",
          "name": "itemId",
          "type": "uint256"
        },
        {
          "indexed": true,
          "internalType": "address",
          "name": "nft",
          "type": "address"
        },
        {
          "indexed": false,
          "internalType": "uint256",
          "name": "tokenId",
          "type": "uint256"
        },
        {
          "indexed": true,
          "internalType": "address",
          "name": "owner",
          "type": "address"
        }
      ],
      "name": "Posted",
      "type": "event"
    },
    {
      "inputs": [],
      "name": "feeAccount",
      "outputs": [
        {
          "internalType": "address payable",
          "name": "",
          "type": "address"
        }
      ],
      "stateMutability": "view",
      "type": "function"
    },
    {
      "inputs": [],
      "name": "feePercent",
      "outputs": [
        {
          "internalType": "uint256",
          "name": "",
          "type": "uint256"
        }
      ],
      "stateMutability": "view",
      "type": "function"
    },
    {
      "inputs": [],
      "name": "itemCount",
      "outputs": [
        {
          "internalType": "uint256",
          "name": "",
          "type": "uint256"
        }
      ],
      "stateMutability": "view",
      "type": "function"
    },
    {
      "inputs": [
        {
          "internalType": "uint256",
          "name": "",
          "type": "uint256"
        }
      ],
      "name": "items",
      "outputs": [
        {
          "internalType": "uint256",
          "name": "itemId",
          "type": "uint256"
        },
        {
          "internalType": "contract IERC721",
          "name": "nft",
          "type": "address"
        },
        {
          "internalType": "uint256",
          "name": "tokenId",
          "type": "uint256"
        },
        {
          "internalType": "address payable",
          "name": "owner",
          "type": "address"
        },
        {
          "internalType": "bool",
          "name": "sold",
          "type": "bool"
        }
      ],
      "stateMutability": "view",
      "type": "function"
    },
    {
      "inputs": [
        {
          "internalType": "uint256",
          "name": "_itemId",
          "type": "uint256"
        }
      ],
      "name": "likeItem",
      "outputs": [],
      "stateMutability": "payable",
      "type": "function"
    },
    {
      "inputs": [
        {
          "internalType": "contract IERC721",
          "name": "_nft",
          "type": "address"
        },
        {
          "internalType": "uint256",
          "name": "_tokenId",
          "type": "uint256"
        }
      ],
      "name": "makeItem",
      "outputs": [],
      "stateMutability": "nonpayable",
      "type": "function"
    },
    {
      "inputs": [
        {
          "internalType": "uint256",
          "name": "_itemId",
          "type": "uint256"
        }
      ],
      "name": "postItem",
      "outputs": [],
      "stateMutability": "payable",
      "type": "function"
    },
    {
      "inputs": [],
      "name": "price",
      "outputs": [
        {
          "internalType": "uint256",
          "name": "",
          "type": "uint256"
        }
      ],
      "stateMutability": "view",
      "type": "function"
    }
  ],
  "bytecode": "0x60c0604052600160025534801561001557600080fd5b50604051610e6d380380610e6d83398181016040528101906100379190610099565b60016000819055503373ffffffffffffffffffffffffffffffffffffffff1660808173ffffffffffffffffffffffffffffffffffffffff1660601b815250508060a08181525050506100e3565b600081519050610093816100cc565b92915050565b6000602082840312156100ab57600080fd5b60006100b984828501610084565b91505092915050565b6000819050919050565b6100d5816100c2565b81146100e057600080fd5b50565b60805160601c60a051610d6261010b600039600061040d015260006103e30152610d626000f3fe60806040526004361061007b5760003560e01c8063a035b1fe1161004e578063a035b1fe1461012a578063bfb231d214610155578063d5d1975c14610196578063fe4ce110146101b25761007b565b80631a1beae21461008057806365e17c9d146100a95780636bfb0d01146100d45780637fd6f15c146100ff575b600080fd5b34801561008c57600080fd5b506100a760048036038101906100a29190610908565b6101ce565b005b3480156100b557600080fd5b506100be6103e1565b6040516100cb9190610a21565b60405180910390f35b3480156100e057600080fd5b506100e9610405565b6040516100f69190610ad3565b60405180910390f35b34801561010b57600080fd5b5061011461040b565b6040516101219190610ad3565b60405180910390f35b34801561013657600080fd5b5061013f61042f565b60405161014c9190610ad3565b60405180910390f35b34801561016157600080fd5b5061017c60048036038101906101779190610944565b610435565b60405161018d959493929190610aee565b60405180910390f35b6101b060048036038101906101ab9190610944565b6104b8565b005b6101cc60048036038101906101c79190610944565b610644565b005b60026000541415610214576040517f08c379a000000000000000000000000000000000000000000000000000000000815260040161020b90610ab3565b60405180910390fd5b60026000819055506001600081548092919061022f90610c0b565b91905055508173ffffffffffffffffffffffffffffffffffffffff166323b872dd3330846040518463ffffffff1660e01b815260040161027193929190610a3c565b600060405180830381600087803b15801561028b57600080fd5b505af115801561029f573d6000803e3d6000fd5b505050506040518060a0016040528060015481526020018373ffffffffffffffffffffffffffffffffffffffff1681526020018281526020013373ffffffffffffffffffffffffffffffffffffffff168152602001600015158152506003600060015481526020019081526020016000206000820151816000015560208201518160010160006101000a81548173ffffffffffffffffffffffffffffffffffffffff021916908373ffffffffffffffffffffffffffffffffffffffff1602179055506040820151816002015560608201518160030160006101000a81548173ffffffffffffffffffffffffffffffffffffffff021916908373ffffffffffffffffffffffffffffffffffffffff16021790555060808201518160030160146101000a81548160ff02191690831515021790555090505060016000819055505050565b7f000000000000000000000000000000000000000000000000000000000000000081565b60015481565b7f000000000000000000000000000000000000000000000000000000000000000081565b60025481565b60036020528060005260406000206000915090508060000154908060010160009054906101000a900473ffffffffffffffffffffffffffffffffffffffff16908060020154908060030160009054906101000a900473ffffffffffffffffffffffffffffffffffffffff16908060030160149054906101000a900460ff16905085565b600260005414156104fe576040517f08c379a00000000000000000000000000000000000000000000000000000000081526004016104f590610ab3565b60405180910390fd5b6002600081905550600060036000838152602001908152602001600020905060008211801561052f57506001548211155b61056e576040517f08c379a000000000000000000000000000000000000000000000000000000000815260040161056590610a93565b60405180910390fd5b3373ffffffffffffffffffffffffffffffffffffffff168160030160009054906101000a900473ffffffffffffffffffffffffffffffffffffffff1673ffffffffffffffffffffffffffffffffffffffff168260010160009054906101000a900473ffffffffffffffffffffffffffffffffffffffff1673ffffffffffffffffffffffffffffffffffffffff167fc9bea71311cd1bdeda6109cdefd30fc469f3f687c5d1ce701abe1e0ea7640ca7858560020154604051610630929190610b41565b60405180910390a450600160008190555050565b6002600054141561068a576040517f08c379a000000000000000000000000000000000000000000000000000000000815260040161068190610ab3565b60405180910390fd5b600260008190555060006003600083815260200190815260200160002090506000821180156106bb57506001548211155b6106fa576040517f08c379a00000000000000000000000000000000000000000000000000000000081526004016106f190610a93565b60405180910390fd5b8060030160149054906101000a900460ff161561074c576040517f08c379a000000000000000000000000000000000000000000000000000000000815260040161074390610a73565b60405180910390fd5b338160030160006101000a81548173ffffffffffffffffffffffffffffffffffffffff021916908373ffffffffffffffffffffffffffffffffffffffff16021790555060018160030160146101000a81548160ff0219169083151502179055508060010160009054906101000a900473ffffffffffffffffffffffffffffffffffffffff1673ffffffffffffffffffffffffffffffffffffffff166323b872dd303384600201546040518463ffffffff1660e01b815260040161081193929190610a3c565b600060405180830381600087803b15801561082b57600080fd5b505af115801561083f573d6000803e3d6000fd5b505050503373ffffffffffffffffffffffffffffffffffffffff168160010160009054906101000a900473ffffffffffffffffffffffffffffffffffffffff1673ffffffffffffffffffffffffffffffffffffffff167fe4cd59d8326f43a50512c6f581bf445bdc32a3844cea88e0f28f1dd5f8637a0a8484600201546040516108ca929190610b41565b60405180910390a350600160008190555050565b6000813590506108ed81610cfe565b92915050565b60008135905061090281610d15565b92915050565b6000806040838503121561091b57600080fd5b6000610929858286016108de565b925050602061093a858286016108f3565b9150509250929050565b60006020828403121561095657600080fd5b6000610964848285016108f3565b91505092915050565b61097681610b8d565b82525050565b61098581610b7b565b82525050565b61099481610b9f565b82525050565b6109a381610be7565b82525050565b60006109b6601183610b6a565b91506109c182610c83565b602082019050919050565b60006109d9601283610b6a565b91506109e482610cac565b602082019050919050565b60006109fc601f83610b6a565b9150610a0782610cd5565b602082019050919050565b610a1b81610bdd565b82525050565b6000602082019050610a36600083018461096d565b92915050565b6000606082019050610a51600083018661097c565b610a5e602083018561097c565b610a6b6040830184610a12565b949350505050565b60006020820190508181036000830152610a8c816109a9565b9050919050565b60006020820190508181036000830152610aac816109cc565b9050919050565b60006020820190508181036000830152610acc816109ef565b9050919050565b6000602082019050610ae86000830184610a12565b92915050565b600060a082019050610b036000830188610a12565b610b10602083018761099a565b610b1d6040830186610a12565b610b2a606083018561096d565b610b37608083018461098b565b9695505050505050565b6000604082019050610b566000830185610a12565b610b636020830184610a12565b9392505050565b600082825260208201905092915050565b6000610b8682610bbd565b9050919050565b6000610b9882610bbd565b9050919050565b60008115159050919050565b6000610bb682610b7b565b9050919050565b600073ffffffffffffffffffffffffffffffffffffffff82169050919050565b6000819050919050565b6000610bf282610bf9565b9050919050565b6000610c0482610bbd565b9050919050565b6000610c1682610bdd565b91507fffffffffffffffffffffffffffffffffffffffffffffffffffffffffffffffff821415610c4957610c48610c54565b5b600182019050919050565b7f4e487b7100000000000000000000000000000000000000000000000000000000600052601160045260246000fd5b7f6974656d20616c726561647920736f6c64000000000000000000000000000000600082015250565b7f6974656d20646f65736e27742065786973740000000000000000000000000000600082015250565b7f5265656e7472616e637947756172643a207265656e7472616e742063616c6c00600082015250565b610d0781610bab565b8114610d1257600080fd5b50565b610d1e81610bdd565b8114610d2957600080fd5b5056fea2646970667358221220be9890b904513ea4d6c2b7b3dfd1982a6d17f4e54a43cd19dd8a65d06bc39b7164736f6c63430008040033",
  "linkReferences": {},
  "deployedLinkReferences": {}
}